{
  "_format": "hh-sol-artifact-1",
  "contractName": "CreatorRegistry",
  "sourceName": "contracts/CreatorRegistry.sol",
  "abi": [
    {
      "anonymous": false,
      "inputs": [
        {
          "indexed": true,
          "internalType": "address",
          "name": "creator",
          "type": "address"
        }
      ],
      "name": "CreatorDeactivated",
      "type": "event"
    },
    {
      "anonymous": false,
      "inputs": [
        {
          "indexed": true,
          "internalType": "address",
          "name": "creator",
          "type": "address"
        },
        {
          "indexed": false,
          "internalType": "string",
          "name": "username",
          "type": "string"
        },
        {
          "indexed": false,
          "internalType": "uint256",
          "name": "subscriptionPrice",
          "type": "uint256"
        }
      ],
      "name": "CreatorRegistered",
      "type": "event"
    },
    {
      "anonymous": false,
      "inputs": [
        {
          "indexed": true,
          "internalType": "address",
          "name": "creator",
          "type": "address"
        },
        {
          "indexed": false,
          "internalType": "string",
          "name": "username",
          "type": "string"
        },
        {
          "indexed": false,
          "internalType": "uint256",
          "name": "subscriptionPrice",
          "type": "uint256"
        }
      ],
      "name": "CreatorUpdated",
      "type": "event"
    },
    {
      "inputs": [],
      "name": "deactivateCreator",
      "outputs": [],
      "stateMutability": "nonpayable",
      "type": "function"
    },
    {
      "inputs": [],
      "name": "getAllCreators",
      "outputs": [
        {
          "internalType": "address[]",
          "name": "",
          "type": "address[]"
        }
      ],
      "stateMutability": "view",
      "type": "function"
    },
    {
      "inputs": [
        {
          "internalType": "address",
          "name": "creator",
          "type": "address"
        }
      ],
      "name": "getCreator",
      "outputs": [
        {
          "components": [
            {
              "internalType": "string",
              "name": "username",
              "type": "string"
            },
            {
              "internalType": "string",
              "name": "bio",
              "type": "string"
            },
            {
              "internalType": "uint256",
              "name": "subscriptionPrice",
              "type": "uint256"
            },
            {
              "internalType": "bool",
              "name": "exists",
              "type": "bool"
            }
          ],
          "internalType": "struct CreatorRegistry.Creator",
          "name": "",
          "type": "tuple"
        }
      ],
      "stateMutability": "view",
      "type": "function"
    },
    {
      "inputs": [
        {
          "internalType": "address",
          "name": "creator",
          "type": "address"
        }
      ],
      "name": "isCreatorRegistered",
      "outputs": [
        {
          "internalType": "bool",
          "name": "",
          "type": "bool"
        }
      ],
      "stateMutability": "view",
      "type": "function"
    },
    {
      "inputs": [
        {
          "internalType": "string",
          "name": "username",
          "type": "string"
        },
        {
          "internalType": "string",
          "name": "bio",
          "type": "string"
        },
        {
          "internalType": "uint256",
          "name": "subscriptionPrice",
          "type": "uint256"
        }
      ],
      "name": "registerCreator",
      "outputs": [],
      "stateMutability": "nonpayable",
      "type": "function"
    },
    {
      "inputs": [
        {
          "internalType": "string",
          "name": "aliasName",
          "type": "string"
        }
      ],
      "name": "resolveAlias",
      "outputs": [
        {
          "internalType": "address",
          "name": "",
          "type": "address"
        }
      ],
      "stateMutability": "view",
      "type": "function"
    },
    {
      "inputs": [
        {
          "internalType": "string",
          "name": "username",
          "type": "string"
        },
        {
          "internalType": "string",
          "name": "bio",
          "type": "string"
        },
        {
          "internalType": "uint256",
          "name": "subscriptionPrice",
          "type": "uint256"
        }
      ],
      "name": "updateCreator",
      "outputs": [],
      "stateMutability": "nonpayable",
      "type": "function"
    }
  ],
  "bytecode": "0x608060405234801561000f575f80fd5b506119868061001d5f395ff3fe608060405234801561000f575f80fd5b506004361061007b575f3560e01c8063914eaf5a11610059578063914eaf5a146100d5578063a021030914610105578063dfe93b6214610135578063f97fac4d146101515761007b565b80631421b7d21461007f57806369adb463146100895780638816543a146100a5575b5f80fd5b61008761016f565b005b6100a3600480360381019061009e9190610dce565b610340565b005b6100bf60048036038101906100ba9190610e5f565b610711565b6040516100cc9190610ee9565b60405180910390f35b6100ef60048036038101906100ea9190610f2c565b61075a565b6040516100fc9190610f71565b60405180910390f35b61011f600480360381019061011a9190610f2c565b6107ae565b60405161012c9190611099565b60405180910390f35b61014f600480360381019061014a9190610dce565b610947565b005b610159610c7f565b6040516101669190611170565b60405180910390f35b5f803373ffffffffffffffffffffffffffffffffffffffff1673ffffffffffffffffffffffffffffffffffffffff1681526020019081526020015f206003015f9054906101000a900460ff166101fa576040517f08c379a00000000000000000000000000000000000000000000000000000000081526004016101f1906111ea565b60405180910390fd5b5f805f3373ffffffffffffffffffffffffffffffffffffffff1673ffffffffffffffffffffffffffffffffffffffff1681526020019081526020015f2090505f6002825f0160405161024c9190611301565b90815260200160405180910390205f6101000a81548173ffffffffffffffffffffffffffffffffffffffff021916908373ffffffffffffffffffffffffffffffffffffffff1602179055505f816003015f6101000a81548160ff02191690831515021790555060405180602001604052805f815250815f0190816102d091906114cf565b5060405180602001604052805f8152508160010190816102f091906114cf565b505f81600201819055503373ffffffffffffffffffffffffffffffffffffffff167ff27995cec6a287413cc0e2d3975bf820bbec7d52356521ceab8ec946db134ea160405160405180910390a250565b5f8585905011610385576040517f08c379a000000000000000000000000000000000000000000000000000000000815260040161037c906115e8565b60405180910390fd5b5f803373ffffffffffffffffffffffffffffffffffffffff1673ffffffffffffffffffffffffffffffffffffffff1681526020019081526020015f206003015f9054906101000a900460ff1615610411576040517f08c379a000000000000000000000000000000000000000000000000000000000815260040161040890611650565b60405180910390fd5b5f73ffffffffffffffffffffffffffffffffffffffff166002868660405161043a9291906116a0565b90815260200160405180910390205f9054906101000a900473ffffffffffffffffffffffffffffffffffffffff1673ffffffffffffffffffffffffffffffffffffffff16146104be576040517f08c379a00000000000000000000000000000000000000000000000000000000081526004016104b590611702565b60405180910390fd5b604051806080016040528086868080601f0160208091040260200160405190810160405280939291908181526020018383808284375f81840152601f19601f82011690508083019250505050505050815260200184848080601f0160208091040260200160405190810160405280939291908181526020018383808284375f81840152601f19601f820116905080830192505050505050508152602001828152602001600115158152505f803373ffffffffffffffffffffffffffffffffffffffff1673ffffffffffffffffffffffffffffffffffffffff1681526020019081526020015f205f820151815f0190816105b791906114cf565b5060208201518160010190816105cd91906114cf565b50604082015181600201556060820151816003015f6101000a81548160ff021916908315150217905550905050336002868660405161060d9291906116a0565b90815260200160405180910390205f6101000a81548173ffffffffffffffffffffffffffffffffffffffff021916908373ffffffffffffffffffffffffffffffffffffffff160217905550600133908060018154018082558091505060019003905f5260205f20015f9091909190916101000a81548173ffffffffffffffffffffffffffffffffffffffff021916908373ffffffffffffffffffffffffffffffffffffffff1602179055503373ffffffffffffffffffffffffffffffffffffffff167fbf620853fd890bc166209817a64206f57de9aa2bc196bd5bab92d17a38d6515d8686846040516107029392919061175b565b60405180910390a25050505050565b5f600283836040516107249291906116a0565b90815260200160405180910390205f9054906101000a900473ffffffffffffffffffffffffffffffffffffffff16905092915050565b5f805f8373ffffffffffffffffffffffffffffffffffffffff1673ffffffffffffffffffffffffffffffffffffffff1681526020019081526020015f206003015f9054906101000a900460ff169050919050565b6107b6610d0a565b5f808373ffffffffffffffffffffffffffffffffffffffff1673ffffffffffffffffffffffffffffffffffffffff1681526020019081526020015f206040518060800160405290815f8201805461080c90611235565b80601f016020809104026020016040519081016040528092919081815260200182805461083890611235565b80156108835780601f1061085a57610100808354040283529160200191610883565b820191905f5260205f20905b81548152906001019060200180831161086657829003601f168201915b5050505050815260200160018201805461089c90611235565b80601f01602080910402602001604051908101604052809291908181526020018280546108c890611235565b80156109135780601f106108ea57610100808354040283529160200191610913565b820191905f5260205f20905b8154815290600101906020018083116108f657829003601f168201915b5050505050815260200160028201548152602001600382015f9054906101000a900460ff1615151515815250509050919050565b5f803373ffffffffffffffffffffffffffffffffffffffff1673ffffffffffffffffffffffffffffffffffffffff1681526020019081526020015f206003015f9054906101000a900460ff166109d2576040517f08c379a00000000000000000000000000000000000000000000000000000000081526004016109c9906111ea565b60405180910390fd5b5f8585905011610a17576040517f08c379a0000000000000000000000000000000000000000000000000000000008152600401610a0e906115e8565b60405180910390fd5b5f805f3373ffffffffffffffffffffffffffffffffffffffff1673ffffffffffffffffffffffffffffffffffffffff1681526020019081526020015f2090508585604051610a669291906117b9565b6040518091039020815f01604051610a7e9190611863565b604051809103902014610c08575f73ffffffffffffffffffffffffffffffffffffffff1660028787604051610ab49291906116a0565b90815260200160405180910390205f9054906101000a900473ffffffffffffffffffffffffffffffffffffffff1673ffffffffffffffffffffffffffffffffffffffff1614610b38576040517f08c379a0000000000000000000000000000000000000000000000000000000008152600401610b2f90611702565b60405180910390fd5b5f6002825f01604051610b4b9190611301565b90815260200160405180910390205f6101000a81548173ffffffffffffffffffffffffffffffffffffffff021916908373ffffffffffffffffffffffffffffffffffffffff1602179055503360028787604051610ba99291906116a0565b90815260200160405180910390205f6101000a81548173ffffffffffffffffffffffffffffffffffffffff021916908373ffffffffffffffffffffffffffffffffffffffff1602179055508585825f019182610c06929190611883565b505b8383826001019182610c1b929190611883565b508181600201819055503373ffffffffffffffffffffffffffffffffffffffff167f047e876438a6eedbcf33c1be7c8074932e9a0d6773f6610d1be06940d7bdfe42878785604051610c6f9392919061175b565b60405180910390a2505050505050565b60606001805480602002602001604051908101604052809291908181526020018280548015610d0057602002820191905f5260205f20905b815f9054906101000a900473ffffffffffffffffffffffffffffffffffffffff1673ffffffffffffffffffffffffffffffffffffffff1681526020019060010190808311610cb7575b5050505050905090565b604051806080016040528060608152602001606081526020015f81526020015f151581525090565b5f80fd5b5f80fd5b5f80fd5b5f80fd5b5f80fd5b5f8083601f840112610d5b57610d5a610d3a565b5b8235905067ffffffffffffffff811115610d7857610d77610d3e565b5b602083019150836001820283011115610d9457610d93610d42565b5b9250929050565b5f819050919050565b610dad81610d9b565b8114610db7575f80fd5b50565b5f81359050610dc881610da4565b92915050565b5f805f805f60608688031215610de757610de6610d32565b5b5f86013567ffffffffffffffff811115610e0457610e03610d36565b5b610e1088828901610d46565b9550955050602086013567ffffffffffffffff811115610e3357610e32610d36565b5b610e3f88828901610d46565b93509350506040610e5288828901610dba565b9150509295509295909350565b5f8060208385031215610e7557610e74610d32565b5b5f83013567ffffffffffffffff811115610e9257610e91610d36565b5b610e9e85828601610d46565b92509250509250929050565b5f73ffffffffffffffffffffffffffffffffffffffff82169050919050565b5f610ed382610eaa565b9050919050565b610ee381610ec9565b82525050565b5f602082019050610efc5f830184610eda565b92915050565b610f0b81610ec9565b8114610f15575f80fd5b50565b5f81359050610f2681610f02565b92915050565b5f60208284031215610f4157610f40610d32565b5b5f610f4e84828501610f18565b91505092915050565b5f8115159050919050565b610f6b81610f57565b82525050565b5f602082019050610f845f830184610f62565b92915050565b5f81519050919050565b5f82825260208201905092915050565b5f5b83811015610fc1578082015181840152602081019050610fa6565b5f8484015250505050565b5f601f19601f8301169050919050565b5f610fe682610f8a565b610ff08185610f94565b9350611000818560208601610fa4565b61100981610fcc565b840191505092915050565b61101d81610d9b565b82525050565b61102c81610f57565b82525050565b5f608083015f8301518482035f86015261104c8282610fdc565b915050602083015184820360208601526110668282610fdc565b915050604083015161107b6040860182611014565b50606083015161108e6060860182611023565b508091505092915050565b5f6020820190508181035f8301526110b18184611032565b905092915050565b5f81519050919050565b5f82825260208201905092915050565b5f819050602082019050919050565b6110eb81610ec9565b82525050565b5f6110fc83836110e2565b60208301905092915050565b5f602082019050919050565b5f61111e826110b9565b61112881856110c3565b9350611133836110d3565b805f5b8381101561116357815161114a88826110f1565b975061115583611108565b925050600181019050611136565b5085935050505092915050565b5f6020820190508181035f8301526111888184611114565b905092915050565b5f82825260208201905092915050565b7f4e6f7420726567697374657265640000000000000000000000000000000000005f82015250565b5f6111d4600e83611190565b91506111df826111a0565b602082019050919050565b5f6020820190508181035f830152611201816111c8565b9050919050565b7f4e487b71000000000000000000000000000000000000000000000000000000005f52602260045260245ffd5b5f600282049050600182168061124c57607f821691505b60208210810361125f5761125e611208565b5b50919050565b5f81905092915050565b5f819050815f5260205f209050919050565b5f815461128d81611235565b6112978186611265565b9450600182165f81146112b157600181146112c6576112f8565b60ff19831686528115158202860193506112f8565b6112cf8561126f565b5f5b838110156112f0578154818901526001820191506020810190506112d1565b838801955050505b50505092915050565b5f61130c8284611281565b915081905092915050565b7f4e487b71000000000000000000000000000000000000000000000000000000005f52604160045260245ffd5b5f6020601f8301049050919050565b5f82821b905092915050565b5f6008830261138e7fffffffffffffffffffffffffffffffffffffffffffffffffffffffffffffffff82611353565b6113988683611353565b95508019841693508086168417925050509392505050565b5f819050919050565b5f6113d36113ce6113c984610d9b565b6113b0565b610d9b565b9050919050565b5f819050919050565b6113ec836113b9565b6114006113f8826113da565b84845461135f565b825550505050565b5f90565b611414611408565b61141f8184846113e3565b505050565b5b81811015611442576114375f8261140c565b600181019050611425565b5050565b601f821115611487576114588161126f565b61146184611344565b81016020851015611470578190505b61148461147c85611344565b830182611424565b50505b505050565b5f82821c905092915050565b5f6114a75f198460080261148c565b1980831691505092915050565b5f6114bf8383611498565b9150826002028217905092915050565b6114d882610f8a565b67ffffffffffffffff8111156114f1576114f0611317565b5b6114fb8254611235565b611506828285611446565b5f60209050601f831160018114611537575f8415611525578287015190505b61152f85826114b4565b865550611596565b601f1984166115458661126f565b5f5b8281101561156c57848901518255600182019150602085019450602081019050611547565b868310156115895784890151611585601f891682611498565b8355505b6001600288020188555050505b505050505050565b7f557365726e616d652072657175697265640000000000000000000000000000005f82015250565b5f6115d2601183611190565b91506115dd8261159e565b602082019050919050565b5f6020820190508181035f8301526115ff816115c6565b9050919050565b7f416c7265616479207265676973746572656400000000000000000000000000005f82015250565b5f61163a601283611190565b915061164582611606565b602082019050919050565b5f6020820190508181035f8301526116678161162e565b9050919050565b828183375f83830152505050565b5f6116878385611265565b935061169483858461166e565b82840190509392505050565b5f6116ac82848661167c565b91508190509392505050565b7f557365726e616d6520616c72656164792074616b656e000000000000000000005f82015250565b5f6116ec601683611190565b91506116f7826116b8565b602082019050919050565b5f6020820190508181035f830152611719816116e0565b9050919050565b5f61172b8385611190565b935061173883858461166e565b61174183610fcc565b840190509392505050565b61175581610d9b565b82525050565b5f6040820190508181035f830152611774818587611720565b9050611783602083018461174c565b949350505050565b5f81905092915050565b5f6117a0838561178b565b93506117ad83858461166e565b82840190509392505050565b5f6117c5828486611795565b91508190509392505050565b5f819050815f5260205f209050919050565b5f81546117ef81611235565b6117f9818661178b565b9450600182165f811461181357600181146118285761185a565b60ff198316865281151582028601935061185a565b611831856117d1565b5f5b8381101561185257815481890152600182019150602081019050611833565b838801955050505b50505092915050565b5f61186e82846117e3565b915081905092915050565b5f82905092915050565b61188d8383611879565b67ffffffffffffffff8111156118a6576118a5611317565b5b6118b08254611235565b6118bb828285611446565b5f601f8311600181146118e8575f84156118d6578287013590505b6118e085826114b4565b865550611947565b601f1984166118f68661126f565b5f5b8281101561191d578489013582556001820191506020850194506020810190506118f8565b8683101561193a5784890135611936601f891682611498565b8355505b6001600288020188555050505b5050505050505056fea264697066735822122022387f4f7c621aeb58ad10cf67bc8bc3e226cc5511141ba69d96c41e58e161d064736f6c63430008180033",
  "linkReferences": {},
  "deployedLinkReferences": {}
}