{
  "_format": "hh-sol-artifact-1",
  "contractName": "CreatorRegistry",
  "sourceName": "contracts/CreatorRegistry.sol",
  "abi": [
    {
      "anonymous": false,
      "inputs": [
        {
          "indexed": true,
          "internalType": "address",
          "name": "creator",
          "type": "address"
        },
        {
          "indexed": false,
          "internalType": "string",
          "name": "username",
          "type": "string"
        },
        {
          "indexed": false,
          "internalType": "uint256",
          "name": "subscriptionPrice",
          "type": "uint256"
        }
      ],
      "name": "CreatorRegistered",
      "type": "event"
    },
    {
      "anonymous": false,
      "inputs": [
        {
          "indexed": true,
          "internalType": "address",
          "name": "creator",
          "type": "address"
        },
        {
          "indexed": false,
          "internalType": "string",
          "name": "username",
          "type": "string"
        },
        {
          "indexed": false,
          "internalType": "uint256",
          "name": "subscriptionPrice",
          "type": "uint256"
        }
      ],
      "name": "CreatorUpdated",
      "type": "event"
    },
    {
      "inputs": [],
      "name": "getAllCreators",
      "outputs": [
        {
          "internalType": "address[]",
          "name": "",
          "type": "address[]"
        }
      ],
      "stateMutability": "view",
      "type": "function"
    },
    {
      "inputs": [
        {
          "internalType": "address",
          "name": "creator",
          "type": "address"
        }
      ],
      "name": "getCreator",
      "outputs": [
        {
          "components": [
            {
              "internalType": "string",
              "name": "username",
              "type": "string"
            },
            {
              "internalType": "string",
              "name": "bio",
              "type": "string"
            },
            {
              "internalType": "uint256",
              "name": "subscriptionPrice",
              "type": "uint256"
            },
            {
              "internalType": "bool",
              "name": "exists",
              "type": "bool"
            }
          ],
          "internalType": "struct CreatorRegistry.Creator",
          "name": "",
          "type": "tuple"
        }
      ],
      "stateMutability": "view",
      "type": "function"
    },
    {
      "inputs": [
        {
          "internalType": "address",
          "name": "creator",
          "type": "address"
        }
      ],
      "name": "isCreatorRegistered",
      "outputs": [
        {
          "internalType": "bool",
          "name": "",
          "type": "bool"
        }
      ],
      "stateMutability": "view",
      "type": "function"
    },
    {
      "inputs": [
        {
          "internalType": "string",
          "name": "username",
          "type": "string"
        },
        {
          "internalType": "string",
          "name": "bio",
          "type": "string"
        },
        {
          "internalType": "uint256",
          "name": "subscriptionPrice",
          "type": "uint256"
        }
      ],
      "name": "registerCreator",
      "outputs": [],
      "stateMutability": "nonpayable",
      "type": "function"
    },
    {
      "inputs": [
        {
          "internalType": "string",
          "name": "aliasName",
          "type": "string"
        }
      ],
      "name": "resolveAlias",
      "outputs": [
        {
          "internalType": "address",
          "name": "",
          "type": "address"
        }
      ],
      "stateMutability": "view",
      "type": "function"
    },
    {
      "inputs": [
        {
          "internalType": "string",
          "name": "username",
          "type": "string"
        },
        {
          "internalType": "string",
          "name": "bio",
          "type": "string"
        },
        {
          "internalType": "uint256",
          "name": "subscriptionPrice",
          "type": "uint256"
        }
      ],
      "name": "updateCreator",
      "outputs": [],
      "stateMutability": "nonpayable",
      "type": "function"
    }
  ],
  "bytecode": "0x608060405234801561001057600080fd5b50611835806100206000396000f3fe608060405234801561001057600080fd5b50600436106100625760003560e01c806369adb463146100675780638816543a14610083578063914eaf5a146100b3578063a0210309146100e3578063dfe93b6214610113578063f97fac4d1461012f575b600080fd5b610081600480360381019061007c9190610c17565b61014d565b005b61009d60048036038101906100989190610cac565b61052f565b6040516100aa9190610d3a565b60405180910390f35b6100cd60048036038101906100c89190610d81565b61057a565b6040516100da9190610dc9565b60405180910390f35b6100fd60048036038101906100f89190610d81565b6105d2565b60405161010a9190610efc565b60405180910390f35b61012d60048036038101906101289190610c17565b610773565b005b610137610aba565b6040516101449190610fdc565b60405180910390f35b60008585905011610193576040517f08c379a000000000000000000000000000000000000000000000000000000000815260040161018a9061105b565b60405180910390fd5b6000803373ffffffffffffffffffffffffffffffffffffffff1673ffffffffffffffffffffffffffffffffffffffff16815260200190815260200160002060030160009054906101000a900460ff1615610222576040517f08c379a0000000000000000000000000000000000000000000000000000000008152600401610219906110c7565b60405180910390fd5b600073ffffffffffffffffffffffffffffffffffffffff166002868660405161024c929190611126565b908152602001604051809103902060009054906101000a900473ffffffffffffffffffffffffffffffffffffffff1673ffffffffffffffffffffffffffffffffffffffff16146102d1576040517f08c379a00000000000000000000000000000000000000000000000000000000081526004016102c89061118b565b60405180910390fd5b604051806080016040528086868080601f016020809104026020016040519081016040528093929190818152602001838380828437600081840152601f19601f82011690508083019250505050505050815260200184848080601f016020809104026020016040519081016040528093929190818152602001838380828437600081840152601f19601f820116905080830192505050505050508152602001828152602001600115158152506000803373ffffffffffffffffffffffffffffffffffffffff1673ffffffffffffffffffffffffffffffffffffffff16815260200190815260200160002060008201518160000190816103d091906113e6565b5060208201518160010190816103e691906113e6565b506040820151816002015560608201518160030160006101000a81548160ff0219169083151502179055509050503360028686604051610427929190611126565b908152602001604051809103902060006101000a81548173ffffffffffffffffffffffffffffffffffffffff021916908373ffffffffffffffffffffffffffffffffffffffff1602179055506001339080600181540180825580915050600190039060005260206000200160009091909190916101000a81548173ffffffffffffffffffffffffffffffffffffffff021916908373ffffffffffffffffffffffffffffffffffffffff1602179055503373ffffffffffffffffffffffffffffffffffffffff167fbf620853fd890bc166209817a64206f57de9aa2bc196bd5bab92d17a38d6515d868684604051610520939291906114f4565b60405180910390a25050505050565b600060028383604051610543929190611126565b908152602001604051809103902060009054906101000a900473ffffffffffffffffffffffffffffffffffffffff16905092915050565b60008060008373ffffffffffffffffffffffffffffffffffffffff1673ffffffffffffffffffffffffffffffffffffffff16815260200190815260200160002060030160009054906101000a900460ff169050919050565b6105da610b48565b6000808373ffffffffffffffffffffffffffffffffffffffff1673ffffffffffffffffffffffffffffffffffffffff16815260200190815260200160002060405180608001604052908160008201805461063390611209565b80601f016020809104026020016040519081016040528092919081815260200182805461065f90611209565b80156106ac5780601f10610681576101008083540402835291602001916106ac565b820191906000526020600020905b81548152906001019060200180831161068f57829003601f168201915b505050505081526020016001820180546106c590611209565b80601f01602080910402602001604051908101604052809291908181526020018280546106f190611209565b801561073e5780601f106107135761010080835404028352916020019161073e565b820191906000526020600020905b81548152906001019060200180831161072157829003601f168201915b50505050508152602001600282015481526020016003820160009054906101000a900460ff1615151515815250509050919050565b6000803373ffffffffffffffffffffffffffffffffffffffff1673ffffffffffffffffffffffffffffffffffffffff16815260200190815260200160002060030160009054906101000a900460ff16610801576040517f08c379a00000000000000000000000000000000000000000000000000000000081526004016107f890611572565b60405180910390fd5b60008585905011610847576040517f08c379a000000000000000000000000000000000000000000000000000000000815260040161083e9061105b565b60405180910390fd5b60008060003373ffffffffffffffffffffffffffffffffffffffff1673ffffffffffffffffffffffffffffffffffffffff168152602001908152602001600020905085856040516108999291906115c2565b6040518091039020816000016040516108b29190611673565b604051809103902014610a4357600073ffffffffffffffffffffffffffffffffffffffff16600287876040516108e9929190611126565b908152602001604051809103902060009054906101000a900473ffffffffffffffffffffffffffffffffffffffff1673ffffffffffffffffffffffffffffffffffffffff161461096e576040517f08c379a00000000000000000000000000000000000000000000000000000000081526004016109659061118b565b60405180910390fd5b6000600282600001604051610983919061170d565b908152602001604051809103902060006101000a81548173ffffffffffffffffffffffffffffffffffffffff021916908373ffffffffffffffffffffffffffffffffffffffff16021790555033600287876040516109e2929190611126565b908152602001604051809103902060006101000a81548173ffffffffffffffffffffffffffffffffffffffff021916908373ffffffffffffffffffffffffffffffffffffffff1602179055508585826000019182610a4192919061172f565b505b8383826001019182610a5692919061172f565b508181600201819055503373ffffffffffffffffffffffffffffffffffffffff167f047e876438a6eedbcf33c1be7c8074932e9a0d6773f6610d1be06940d7bdfe42878785604051610aaa939291906114f4565b60405180910390a2505050505050565b60606001805480602002602001604051908101604052809291908181526020018280548015610b3e57602002820191906000526020600020905b8160009054906101000a900473ffffffffffffffffffffffffffffffffffffffff1673ffffffffffffffffffffffffffffffffffffffff1681526020019060010190808311610af4575b5050505050905090565b60405180608001604052806060815260200160608152602001600081526020016000151581525090565b600080fd5b600080fd5b600080fd5b600080fd5b600080fd5b60008083601f840112610ba157610ba0610b7c565b5b8235905067ffffffffffffffff811115610bbe57610bbd610b81565b5b602083019150836001820283011115610bda57610bd9610b86565b5b9250929050565b6000819050919050565b610bf481610be1565b8114610bff57600080fd5b50565b600081359050610c1181610beb565b92915050565b600080600080600060608688031215610c3357610c32610b72565b5b600086013567ffffffffffffffff811115610c5157610c50610b77565b5b610c5d88828901610b8b565b9550955050602086013567ffffffffffffffff811115610c8057610c7f610b77565b5b610c8c88828901610b8b565b93509350506040610c9f88828901610c02565b9150509295509295909350565b60008060208385031215610cc357610cc2610b72565b5b600083013567ffffffffffffffff811115610ce157610ce0610b77565b5b610ced85828601610b8b565b92509250509250929050565b600073ffffffffffffffffffffffffffffffffffffffff82169050919050565b6000610d2482610cf9565b9050919050565b610d3481610d19565b82525050565b6000602082019050610d4f6000830184610d2b565b92915050565b610d5e81610d19565b8114610d6957600080fd5b50565b600081359050610d7b81610d55565b92915050565b600060208284031215610d9757610d96610b72565b5b6000610da584828501610d6c565b91505092915050565b60008115159050919050565b610dc381610dae565b82525050565b6000602082019050610dde6000830184610dba565b92915050565b600081519050919050565b600082825260208201905092915050565b60005b83811015610e1e578082015181840152602081019050610e03565b60008484015250505050565b6000601f19601f8301169050919050565b6000610e4682610de4565b610e508185610def565b9350610e60818560208601610e00565b610e6981610e2a565b840191505092915050565b610e7d81610be1565b82525050565b610e8c81610dae565b82525050565b60006080830160008301518482036000860152610eaf8282610e3b565b91505060208301518482036020860152610ec98282610e3b565b9150506040830151610ede6040860182610e74565b506060830151610ef16060860182610e83565b508091505092915050565b60006020820190508181036000830152610f168184610e92565b905092915050565b600081519050919050565b600082825260208201905092915050565b6000819050602082019050919050565b610f5381610d19565b82525050565b6000610f658383610f4a565b60208301905092915050565b6000602082019050919050565b6000610f8982610f1e565b610f938185610f29565b9350610f9e83610f3a565b8060005b83811015610fcf578151610fb68882610f59565b9750610fc183610f71565b925050600181019050610fa2565b5085935050505092915050565b60006020820190508181036000830152610ff68184610f7e565b905092915050565b600082825260208201905092915050565b7f557365726e616d65207265717569726564000000000000000000000000000000600082015250565b6000611045601183610ffe565b91506110508261100f565b602082019050919050565b6000602082019050818103600083015261107481611038565b9050919050565b7f416c726561647920726567697374657265640000000000000000000000000000600082015250565b60006110b1601283610ffe565b91506110bc8261107b565b602082019050919050565b600060208201905081810360008301526110e0816110a4565b9050919050565b600081905092915050565b82818337600083830152505050565b600061110d83856110e7565b935061111a8385846110f2565b82840190509392505050565b6000611133828486611101565b91508190509392505050565b7f557365726e616d6520616c72656164792074616b656e00000000000000000000600082015250565b6000611175601683610ffe565b91506111808261113f565b602082019050919050565b600060208201905081810360008301526111a481611168565b9050919050565b7f4e487b7100000000000000000000000000000000000000000000000000000000600052604160045260246000fd5b7f4e487b7100000000000000000000000000000000000000000000000000000000600052602260045260246000fd5b6000600282049050600182168061122157607f821691505b602082108103611234576112336111da565b5b50919050565b60008190508160005260206000209050919050565b60006020601f8301049050919050565b600082821b905092915050565b60006008830261129c7fffffffffffffffffffffffffffffffffffffffffffffffffffffffffffffffff8261125f565b6112a6868361125f565b95508019841693508086168417925050509392505050565b6000819050919050565b60006112e36112de6112d984610be1565b6112be565b610be1565b9050919050565b6000819050919050565b6112fd836112c8565b611311611309826112ea565b84845461126c565b825550505050565b600090565b611326611319565b6113318184846112f4565b505050565b5b818110156113555761134a60008261131e565b600181019050611337565b5050565b601f82111561139a5761136b8161123a565b6113748461124f565b81016020851015611383578190505b61139761138f8561124f565b830182611336565b50505b505050565b600082821c905092915050565b60006113bd6000198460080261139f565b1980831691505092915050565b60006113d683836113ac565b9150826002028217905092915050565b6113ef82610de4565b67ffffffffffffffff811115611408576114076111ab565b5b6114128254611209565b61141d828285611359565b600060209050601f831160018114611450576000841561143e578287015190505b61144885826113ca565b8655506114b0565b601f19841661145e8661123a565b60005b8281101561148657848901518255600182019150602085019450602081019050611461565b868310156114a3578489015161149f601f8916826113ac565b8355505b6001600288020188555050505b505050505050565b60006114c48385610ffe565b93506114d18385846110f2565b6114da83610e2a565b840190509392505050565b6114ee81610be1565b82525050565b6000604082019050818103600083015261150f8185876114b8565b905061151e60208301846114e5565b949350505050565b7f4e6f742072656769737465726564000000000000000000000000000000000000600082015250565b600061155c600e83610ffe565b915061156782611526565b602082019050919050565b6000602082019050818103600083015261158b8161154f565b9050919050565b600081905092915050565b60006115a98385611592565b93506115b68385846110f2565b82840190509392505050565b60006115cf82848661159d565b91508190509392505050565b60008190508160005260206000209050919050565b600081546115fd81611209565b6116078186611592565b9450600182166000811461162257600181146116375761166a565b60ff198316865281151582028601935061166a565b611640856115db565b60005b8381101561166257815481890152600182019150602081019050611643565b838801955050505b50505092915050565b600061167f82846115f0565b915081905092915050565b6000815461169781611209565b6116a181866110e7565b945060018216600081146116bc57600181146116d157611704565b60ff1983168652811515820286019350611704565b6116da8561123a565b60005b838110156116fc578154818901526001820191506020810190506116dd565b838801955050505b50505092915050565b6000611719828461168a565b915081905092915050565b600082905092915050565b6117398383611724565b67ffffffffffffffff811115611752576117516111ab565b5b61175c8254611209565b611767828285611359565b6000601f8311600181146117965760008415611784578287013590505b61178e85826113ca565b8655506117f6565b601f1984166117a48661123a565b60005b828110156117cc578489013582556001820191506020850194506020810190506117a7565b868310156117e957848901356117e5601f8916826113ac565b8355505b6001600288020188555050505b5050505050505056fea264697066735822122036c206062831c2ef9306613f88c3c2ca00975c78a06b455f00fe02f56dccaec664736f6c63430008180033",
  "linkReferences": {},
  "deployedLinkReferences": {}
}