{
  "_format": "hh-sol-artifact-1",
  "contractName": "PostManager",
  "sourceName": "contracts/PostManager.sol",
  "abi": [
    {
      "inputs": [
        {
          "internalType": "address",
          "name": "creatorRegistryAddress",
          "type": "address"
        },
        {
          "internalType": "address",
          "name": "subscriptionManagerAddress",
          "type": "address"
        }
      ],
      "stateMutability": "nonpayable",
      "type": "constructor"
    },
    {
      "anonymous": false,
      "inputs": [
        {
          "indexed": true,
          "internalType": "uint256",
          "name": "postId",
          "type": "uint256"
        },
        {
          "indexed": true,
          "internalType": "address",
          "name": "author",
          "type": "address"
        },
        {
          "indexed": false,
          "internalType": "string",
          "name": "text",
          "type": "string"
        }
      ],
      "name": "CommentAdded",
      "type": "event"
    },
    {
      "anonymous": false,
      "inputs": [
        {
          "indexed": true,
          "internalType": "uint256",
          "name": "postId",
          "type": "uint256"
        },
        {
          "indexed": true,
          "internalType": "address",
          "name": "creator",
          "type": "address"
        },
        {
          "indexed": false,
          "internalType": "string",
          "name": "title",
          "type": "string"
        },
        {
          "indexed": false,
          "internalType": "bool",
          "name": "isPremium",
          "type": "bool"
        }
      ],
      "name": "PostCreated",
      "type": "event"
    },
    {
      "anonymous": false,
      "inputs": [
        {
          "indexed": true,
          "internalType": "uint256",
          "name": "postId",
          "type": "uint256"
        },
        {
          "indexed": true,
          "internalType": "address",
          "name": "user",
          "type": "address"
        }
      ],
      "name": "PostLiked",
      "type": "event"
    },
    {
      "inputs": [
        {
          "internalType": "uint256",
          "name": "postId",
          "type": "uint256"
        },
        {
          "internalType": "string",
          "name": "text",
          "type": "string"
        }
      ],
      "name": "addComment",
      "outputs": [],
      "stateMutability": "nonpayable",
      "type": "function"
    },
    {
      "inputs": [
        {
          "internalType": "string",
          "name": "title",
          "type": "string"
        },
        {
          "internalType": "string",
          "name": "content",
          "type": "string"
        },
        {
          "internalType": "string",
          "name": "mediaUrl",
          "type": "string"
        },
        {
          "internalType": "bool",
          "name": "isPremium",
          "type": "bool"
        }
      ],
      "name": "createPost",
      "outputs": [],
      "stateMutability": "nonpayable",
      "type": "function"
    },
    {
      "inputs": [],
      "name": "creatorRegistry",
      "outputs": [
        {
          "internalType": "contract ICreatorRegistryForPosts",
          "name": "",
          "type": "address"
        }
      ],
      "stateMutability": "view",
      "type": "function"
    },
    {
      "inputs": [
        {
          "internalType": "uint256",
          "name": "postId",
          "type": "uint256"
        },
        {
          "internalType": "uint256",
          "name": "commentIndex",
          "type": "uint256"
        }
      ],
      "name": "deleteComment",
      "outputs": [],
      "stateMutability": "nonpayable",
      "type": "function"
    },
    {
      "inputs": [],
      "name": "getAllPosts",
      "outputs": [
        {
          "components": [
            {
              "internalType": "uint256",
              "name": "id",
              "type": "uint256"
            },
            {
              "internalType": "address",
              "name": "creator",
              "type": "address"
            },
            {
              "internalType": "string",
              "name": "title",
              "type": "string"
            },
            {
              "internalType": "string",
              "name": "content",
              "type": "string"
            },
            {
              "internalType": "string",
              "name": "mediaUrl",
              "type": "string"
            },
            {
              "internalType": "bool",
              "name": "isPremium",
              "type": "bool"
            },
            {
              "internalType": "uint256",
              "name": "createdAt",
              "type": "uint256"
            }
          ],
          "internalType": "struct PostManager.Post[]",
          "name": "",
          "type": "tuple[]"
        }
      ],
      "stateMutability": "view",
      "type": "function"
    },
    {
      "inputs": [
        {
          "internalType": "uint256",
          "name": "postId",
          "type": "uint256"
        },
        {
          "internalType": "address",
          "name": "user",
          "type": "address"
        }
      ],
      "name": "getPostInteractions",
      "outputs": [
        {
          "internalType": "uint256",
          "name": "likeCount",
          "type": "uint256"
        },
        {
          "internalType": "bool",
          "name": "userHasLiked",
          "type": "bool"
        },
        {
          "components": [
            {
              "internalType": "address",
              "name": "author",
              "type": "address"
            },
            {
              "internalType": "string",
              "name": "text",
              "type": "string"
            },
            {
              "internalType": "uint256",
              "name": "timestamp",
              "type": "uint256"
            },
            {
              "internalType": "bool",
              "name": "isDeleted",
              "type": "bool"
            }
          ],
          "internalType": "struct PostManager.Comment[]",
          "name": "comments",
          "type": "tuple[]"
        }
      ],
      "stateMutability": "view",
      "type": "function"
    },
    {
      "inputs": [
        {
          "internalType": "uint256",
          "name": "postId",
          "type": "uint256"
        },
        {
          "internalType": "address",
          "name": "viewer",
          "type": "address"
        }
      ],
      "name": "getVisibleContent",
      "outputs": [
        {
          "internalType": "string",
          "name": "",
          "type": "string"
        }
      ],
      "stateMutability": "view",
      "type": "function"
    },
    {
      "inputs": [
        {
          "internalType": "uint256",
          "name": "",
          "type": "uint256"
        },
        {
          "internalType": "address",
          "name": "",
          "type": "address"
        }
      ],
      "name": "hasLiked",
      "outputs": [
        {
          "internalType": "bool",
          "name": "",
          "type": "bool"
        }
      ],
      "stateMutability": "view",
      "type": "function"
    },
    {
      "inputs": [
        {
          "internalType": "uint256",
          "name": "",
          "type": "uint256"
        },
        {
          "internalType": "uint256",
          "name": "",
          "type": "uint256"
        }
      ],
      "name": "postComments",
      "outputs": [
        {
          "internalType": "address",
          "name": "author",
          "type": "address"
        },
        {
          "internalType": "string",
          "name": "text",
          "type": "string"
        },
        {
          "internalType": "uint256",
          "name": "timestamp",
          "type": "uint256"
        },
        {
          "internalType": "bool",
          "name": "isDeleted",
          "type": "bool"
        }
      ],
      "stateMutability": "view",
      "type": "function"
    },
    {
      "inputs": [],
      "name": "postCount",
      "outputs": [
        {
          "internalType": "uint256",
          "name": "",
          "type": "uint256"
        }
      ],
      "stateMutability": "view",
      "type": "function"
    },
    {
      "inputs": [
        {
          "internalType": "uint256",
          "name": "",
          "type": "uint256"
        }
      ],
      "name": "postLikes",
      "outputs": [
        {
          "internalType": "uint256",
          "name": "",
          "type": "uint256"
        }
      ],
      "stateMutability": "view",
      "type": "function"
    },
    {
      "inputs": [
        {
          "internalType": "uint256",
          "name": "",
          "type": "uint256"
        }
      ],
      "name": "posts",
      "outputs": [
        {
          "internalType": "uint256",
          "name": "id",
          "type": "uint256"
        },
        {
          "internalType": "address",
          "name": "creator",
          "type": "address"
        },
        {
          "internalType": "string",
          "name": "title",
          "type": "string"
        },
        {
          "internalType": "string",
          "name": "content",
          "type": "string"
        },
        {
          "internalType": "string",
          "name": "mediaUrl",
          "type": "string"
        },
        {
          "internalType": "bool",
          "name": "isPremium",
          "type": "bool"
        },
        {
          "internalType": "uint256",
          "name": "createdAt",
          "type": "uint256"
        }
      ],
      "stateMutability": "view",
      "type": "function"
    },
    {
      "inputs": [],
      "name": "subscriptionManager",
      "outputs": [
        {
          "internalType": "contract ISubscriptionManager",
          "name": "",
          "type": "address"
        }
      ],
      "stateMutability": "view",
      "type": "function"
    },
    {
      "inputs": [
        {
          "internalType": "uint256",
          "name": "postId",
          "type": "uint256"
        }
      ],
      "name": "toggleLike",
      "outputs": [],
      "stateMutability": "nonpayable",
      "type": "function"
    }
  ],
  "bytecode": "0x60c060405234801562000010575f80fd5b506040516200338e3803806200338e83398181016040528101906200003691906200010b565b8173ffffffffffffffffffffffffffffffffffffffff1660808173ffffffffffffffffffffffffffffffffffffffff16815250508073ffffffffffffffffffffffffffffffffffffffff1660a08173ffffffffffffffffffffffffffffffffffffffff1681525050505062000150565b5f80fd5b5f73ffffffffffffffffffffffffffffffffffffffff82169050919050565b5f620000d582620000aa565b9050919050565b620000e781620000c9565b8114620000f2575f80fd5b50565b5f815190506200010581620000dc565b92915050565b5f8060408385031215620001245762000123620000a6565b5b5f6200013385828601620000f5565b92505060206200014685828601620000f5565b9150509250929050565b60805160a0516132006200018e5f395f8181610e2601528181611407015281816116bf0152611f9101525f818161110801526118cb01526132005ff3fe608060405234801561000f575f80fd5b50600436106100e8575f3560e01c80638fb7092c1161008a578063bf158fd211610064578063bf158fd214610263578063ccc7c66e14610281578063e71ef23d146102b3578063f1a51ce4146102cf576100e8565b80638fb7092c146101f95780639a6a5cf014610229578063aa7e568314610247576100e8565b806331a4bcb5116100c657806331a4bcb51461015e5780635193c94c1461017a57806354398d18146101ad5780636e2e923a146101c9576100e8565b80630b1e7f83146100ec57806317906c2e146101225780633056110014610140575b5f80fd5b610106600480360381019061010191906120f4565b6102ff565b6040516101199796959493929190612211565b60405180910390f35b61012a6104fa565b6040516101379190612293565b60405180910390f35b6101486104ff565b6040516101559190612483565b60405180910390f35b610178600480360381019061017391906124a3565b610809565b005b610194600480360381019061018f91906124a3565b610a52565b6040516101a494939291906124e1565b60405180910390f35b6101c760048036038101906101c291906120f4565b610b49565b005b6101e360048036038101906101de91906120f4565b6110c7565b6040516101f09190612293565b60405180910390f35b610213600480360381019061020e9190612555565b6110dc565b6040516102209190612593565b60405180910390f35b610231611106565b60405161023e9190612607565b60405180910390f35b610261600480360381019061025c9190612681565b61112a565b005b61026b6116bd565b60405161027891906126fe565b60405180910390f35b61029b60048036038101906102969190612555565b6116e1565b6040516102aa93929190612832565b60405180910390f35b6102cd60048036038101906102c89190612898565b6118c9565b005b6102e960048036038101906102e49190612555565b611ca7565b6040516102f6919061295c565b60405180910390f35b6001602052805f5260405f205f91509050805f015490806001015f9054906101000a900473ffffffffffffffffffffffffffffffffffffffff1690806002018054610349906129a9565b80601f0160208091040260200160405190810160405280929190818152602001828054610375906129a9565b80156103c05780601f10610397576101008083540402835291602001916103c0565b820191905f5260205f20905b8154815290600101906020018083116103a357829003601f168201915b5050505050908060030180546103d5906129a9565b80601f0160208091040260200160405190810160405280929190818152602001828054610401906129a9565b801561044c5780601f106104235761010080835404028352916020019161044c565b820191905f5260205f20905b81548152906001019060200180831161042f57829003601f168201915b505050505090806004018054610461906129a9565b80601f016020809104026020016040519081016040528092919081815260200182805461048d906129a9565b80156104d85780601f106104af576101008083540402835291602001916104d8565b820191905f5260205f20905b8154815290600101906020018083116104bb57829003601f168201915b505050505090806005015f9054906101000a900460ff16908060060154905087565b5f5481565b60605f60028054905067ffffffffffffffff811115610521576105206129d9565b5b60405190808252806020026020018201604052801561055a57816020015b610547612068565b81526020019060019003908161053f5790505b5090505f5b6002805490508110156108015760015f6002838154811061058357610582612a06565b5b905f5260205f20015481526020019081526020015f206040518060e00160405290815f8201548152602001600182015f9054906101000a900473ffffffffffffffffffffffffffffffffffffffff1673ffffffffffffffffffffffffffffffffffffffff1673ffffffffffffffffffffffffffffffffffffffff168152602001600282018054610612906129a9565b80601f016020809104026020016040519081016040528092919081815260200182805461063e906129a9565b80156106895780601f1061066057610100808354040283529160200191610689565b820191905f5260205f20905b81548152906001019060200180831161066c57829003601f168201915b505050505081526020016003820180546106a2906129a9565b80601f01602080910402602001604051908101604052809291908181526020018280546106ce906129a9565b80156107195780601f106106f057610100808354040283529160200191610719565b820191905f5260205f20905b8154815290600101906020018083116106fc57829003601f168201915b50505050508152602001600482018054610732906129a9565b80601f016020809104026020016040519081016040528092919081815260200182805461075e906129a9565b80156107a95780601f10610780576101008083540402835291602001916107a9565b820191905f5260205f20905b81548152906001019060200180831161078c57829003601f168201915b50505050508152602001600582015f9054906101000a900460ff161515151581526020016006820154815250508282815181106107e9576107e8612a06565b5b6020026020010181905250808060010191505061055f565b508091505090565b5f60015f8481526020019081526020015f205f01540361085e576040517f08c379a000000000000000000000000000000000000000000000000000000000815260040161085590612a7d565b60405180910390fd5b60015f8381526020019081526020015f206001015f9054906101000a900473ffffffffffffffffffffffffffffffffffffffff1673ffffffffffffffffffffffffffffffffffffffff163373ffffffffffffffffffffffffffffffffffffffff161480610946575060055f8381526020019081526020015f2081815481106108e9576108e8612a06565b5b905f5260205f2090600402015f015f9054906101000a900473ffffffffffffffffffffffffffffffffffffffff1673ffffffffffffffffffffffffffffffffffffffff163373ffffffffffffffffffffffffffffffffffffffff16145b610985576040517f08c379a000000000000000000000000000000000000000000000000000000000815260040161097c90612ae5565b60405180910390fd5b60055f8381526020019081526020015f2081815481106109a8576109a7612a06565b5b905f5260205f2090600402016003015f9054906101000a900460ff1615610a04576040517f08c379a00000000000000000000000000000000000000000000000000000000081526004016109fb90612b4d565b60405180910390fd5b600160055f8481526020019081526020015f208281548110610a2957610a28612a06565b5b905f5260205f2090600402016003015f6101000a81548160ff0219169083151502179055505050565b6005602052815f5260405f208181548110610a6b575f80fd5b905f5260205f2090600402015f9150915050805f015f9054906101000a900473ffffffffffffffffffffffffffffffffffffffff1690806001018054610ab0906129a9565b80601f0160208091040260200160405190810160405280929190818152602001828054610adc906129a9565b8015610b275780601f10610afe57610100808354040283529160200191610b27565b820191905f5260205f20905b815481529060010190602001808311610b0a57829003601f168201915b505050505090806002015490806003015f9054906101000a900460ff16905084565b805f60015f8381526020019081526020015f206040518060e00160405290815f8201548152602001600182015f9054906101000a900473ffffffffffffffffffffffffffffffffffffffff1673ffffffffffffffffffffffffffffffffffffffff1673ffffffffffffffffffffffffffffffffffffffff168152602001600282018054610bd5906129a9565b80601f0160208091040260200160405190810160405280929190818152602001828054610c01906129a9565b8015610c4c5780601f10610c2357610100808354040283529160200191610c4c565b820191905f5260205f20905b815481529060010190602001808311610c2f57829003601f168201915b50505050508152602001600382018054610c65906129a9565b80601f0160208091040260200160405190810160405280929190818152602001828054610c91906129a9565b8015610cdc5780601f10610cb357610100808354040283529160200191610cdc565b820191905f5260205f20905b815481529060010190602001808311610cbf57829003601f168201915b50505050508152602001600482018054610cf5906129a9565b80601f0160208091040260200160405190810160405280929190818152602001828054610d21906129a9565b8015610d6c5780601f10610d4357610100808354040283529160200191610d6c565b820191905f5260205f20905b815481529060010190602001808311610d4f57829003601f168201915b50505050508152602001600582015f9054906101000a900460ff1615151515815260200160068201548152505090505f815f015103610de0576040517f08c379a0000000000000000000000000000000000000000000000000000000008152600401610dd790612a7d565b60405180910390fd5b8060a0015115610f07575f816020015173ffffffffffffffffffffffffffffffffffffffff163373ffffffffffffffffffffffffffffffffffffffff161480610ec357507f000000000000000000000000000000000000000000000000000000000000000073ffffffffffffffffffffffffffffffffffffffff1663f6416ef63384602001516040518363ffffffff1660e01b8152600401610e83929190612b6b565b602060405180830381865afa158015610e9e573d5f803e3d5ffd5b505050506040513d601f19601f82011682018060405250810190610ec29190612ba6565b5b905080610f05576040517f08c379a0000000000000000000000000000000000000000000000000000000008152600401610efc90612c41565b60405180910390fd5b505b60045f8481526020019081526020015f205f3373ffffffffffffffffffffffffffffffffffffffff1673ffffffffffffffffffffffffffffffffffffffff1681526020019081526020015f205f9054906101000a900460ff1615610ff3575f60045f8581526020019081526020015f205f3373ffffffffffffffffffffffffffffffffffffffff1673ffffffffffffffffffffffffffffffffffffffff1681526020019081526020015f205f6101000a81548160ff02191690831515021790555060035f8481526020019081526020015f205f815480929190610fe990612c8c565b91905055506110c2565b600160045f8581526020019081526020015f205f3373ffffffffffffffffffffffffffffffffffffffff1673ffffffffffffffffffffffffffffffffffffffff1681526020019081526020015f205f6101000a81548160ff02191690831515021790555060035f8481526020019081526020015f205f81548092919061107890612cb3565b91905055503373ffffffffffffffffffffffffffffffffffffffff16837fcf765d6f163c9b0d832e2a94f4c8e9bffd32a2c3ca5fdbb8cc67b5fe1441f41360405160405180910390a35b505050565b6003602052805f5260405f205f915090505481565b6004602052815f5260405f20602052805f5260405f205f915091509054906101000a900460ff1681565b7f000000000000000000000000000000000000000000000000000000000000000081565b825f60015f8381526020019081526020015f206040518060e00160405290815f8201548152602001600182015f9054906101000a900473ffffffffffffffffffffffffffffffffffffffff1673ffffffffffffffffffffffffffffffffffffffff1673ffffffffffffffffffffffffffffffffffffffff1681526020016002820180546111b6906129a9565b80601f01602080910402602001604051908101604052809291908181526020018280546111e2906129a9565b801561122d5780601f106112045761010080835404028352916020019161122d565b820191905f5260205f20905b81548152906001019060200180831161121057829003601f168201915b50505050508152602001600382018054611246906129a9565b80601f0160208091040260200160405190810160405280929190818152602001828054611272906129a9565b80156112bd5780601f10611294576101008083540402835291602001916112bd565b820191905f5260205f20905b8154815290600101906020018083116112a057829003601f168201915b505050505081526020016004820180546112d6906129a9565b80601f0160208091040260200160405190810160405280929190818152602001828054611302906129a9565b801561134d5780601f106113245761010080835404028352916020019161134d565b820191905f5260205f20905b81548152906001019060200180831161133057829003601f168201915b50505050508152602001600582015f9054906101000a900460ff1615151515815260200160068201548152505090505f815f0151036113c1576040517f08c379a00000000000000000000000000000000000000000000000000000000081526004016113b890612a7d565b60405180910390fd5b8060a00151156114e8575f816020015173ffffffffffffffffffffffffffffffffffffffff163373ffffffffffffffffffffffffffffffffffffffff1614806114a457507f000000000000000000000000000000000000000000000000000000000000000073ffffffffffffffffffffffffffffffffffffffff1663f6416ef63384602001516040518363ffffffff1660e01b8152600401611464929190612b6b565b602060405180830381865afa15801561147f573d5f803e3d5ffd5b505050506040513d601f19601f820116820180604052508101906114a39190612ba6565b5b9050806114e6576040517f08c379a00000000000000000000000000000000000000000000000000000000081526004016114dd90612c41565b60405180910390fd5b505b5f848490501161152d576040517f08c379a000000000000000000000000000000000000000000000000000000000815260040161152490612d44565b60405180910390fd5b60055f8681526020019081526020015f2060405180608001604052803373ffffffffffffffffffffffffffffffffffffffff16815260200186868080601f0160208091040260200160405190810160405280939291908181526020018383808284375f81840152601f19601f8201169050808301925050505050505081526020014281526020015f1515815250908060018154018082558091505060019003905f5260205f2090600402015f909190919091505f820151815f015f6101000a81548173ffffffffffffffffffffffffffffffffffffffff021916908373ffffffffffffffffffffffffffffffffffffffff16021790555060208201518160010190816116399190612ef6565b50604082015181600201556060820151816003015f6101000a81548160ff02191690831515021790555050503373ffffffffffffffffffffffffffffffffffffffff16857fcc2d7dd2085ae6644799a42c0174adf9afc10a43f26db5eac3ddd1f96d1d64be86866040516116ae929190612fff565b60405180910390a35050505050565b7f000000000000000000000000000000000000000000000000000000000000000081565b5f80606060035f8681526020019081526020015f2054925060045f8681526020019081526020015f205f8573ffffffffffffffffffffffffffffffffffffffff1673ffffffffffffffffffffffffffffffffffffffff1681526020019081526020015f205f9054906101000a900460ff16915060055f8681526020019081526020015f20805480602002602001604051908101604052809291908181526020015f905b828210156118bc578382905f5260205f2090600402016040518060800160405290815f82015f9054906101000a900473ffffffffffffffffffffffffffffffffffffffff1673ffffffffffffffffffffffffffffffffffffffff1673ffffffffffffffffffffffffffffffffffffffff168152602001600182018054611809906129a9565b80601f0160208091040260200160405190810160405280929190818152602001828054611835906129a9565b80156118805780601f1061185757610100808354040283529160200191611880565b820191905f5260205f20905b81548152906001019060200180831161186357829003601f168201915b5050505050815260200160028201548152602001600382015f9054906101000a900460ff16151515158152505081526020019060010190611784565b5050505090509250925092565b7f000000000000000000000000000000000000000000000000000000000000000073ffffffffffffffffffffffffffffffffffffffff1663914eaf5a336040518263ffffffff1660e01b81526004016119229190613021565b602060405180830381865afa15801561193d573d5f803e3d5ffd5b505050506040513d601f19601f820116820180604052508101906119619190612ba6565b6119a0576040517f08c379a000000000000000000000000000000000000000000000000000000000815260040161199790613084565b60405180910390fd5b5f87879050116119e5576040517f08c379a00000000000000000000000000000000000000000000000000000000081526004016119dc906130ec565b60405180910390fd5b5f8585905011611a2a576040517f08c379a0000000000000000000000000000000000000000000000000000000008152600401611a2190613154565b60405180910390fd5b5f80815480929190611a3b90612cb3565b91905055506040518060e001604052805f5481526020013373ffffffffffffffffffffffffffffffffffffffff16815260200188888080601f0160208091040260200160405190810160405280939291908181526020018383808284375f81840152601f19601f82011690508083019250505050505050815260200186868080601f0160208091040260200160405190810160405280939291908181526020018383808284375f81840152601f19601f82011690508083019250505050505050815260200184848080601f0160208091040260200160405190810160405280939291908181526020018383808284375f81840152601f19601f82011690508083019250505050505050815260200182151581526020014281525060015f805481526020019081526020015f205f820151815f01556020820151816001015f6101000a81548173ffffffffffffffffffffffffffffffffffffffff021916908373ffffffffffffffffffffffffffffffffffffffff1602179055506040820151816002019081611bca9190612ef6565b506060820151816003019081611be09190612ef6565b506080820151816004019081611bf69190612ef6565b5060a0820151816005015f6101000a81548160ff02191690831515021790555060c0820151816006015590505060025f54908060018154018082558091505060019003905f5260205f20015f90919091909150553373ffffffffffffffffffffffffffffffffffffffff165f547fd29c05ce35227cd87e52d185ea77a88bf947eb152c22f5206a691fa5c64299d0898985604051611c9693929190613172565b60405180910390a350505050505050565b60605f60015f8581526020019081526020015f206040518060e00160405290815f8201548152602001600182015f9054906101000a900473ffffffffffffffffffffffffffffffffffffffff1673ffffffffffffffffffffffffffffffffffffffff1673ffffffffffffffffffffffffffffffffffffffff168152602001600282018054611d34906129a9565b80601f0160208091040260200160405190810160405280929190818152602001828054611d60906129a9565b8015611dab5780601f10611d8257610100808354040283529160200191611dab565b820191905f5260205f20905b815481529060010190602001808311611d8e57829003601f168201915b50505050508152602001600382018054611dc4906129a9565b80601f0160208091040260200160405190810160405280929190818152602001828054611df0906129a9565b8015611e3b5780601f10611e1257610100808354040283529160200191611e3b565b820191905f5260205f20905b815481529060010190602001808311611e1e57829003601f168201915b50505050508152602001600482018054611e54906129a9565b80601f0160208091040260200160405190810160405280929190818152602001828054611e80906129a9565b8015611ecb5780601f10611ea257610100808354040283529160200191611ecb565b820191905f5260205f20905b815481529060010190602001808311611eae57829003601f168201915b50505050508152602001600582015f9054906101000a900460ff1615151515815260200160068201548152505090505f815f015103611f3f576040517f08c379a0000000000000000000000000000000000000000000000000000000008152600401611f3690612a7d565b60405180910390fd5b8060a00151611f55578060600151915050612062565b5f816020015173ffffffffffffffffffffffffffffffffffffffff168473ffffffffffffffffffffffffffffffffffffffff16148061202e57507f000000000000000000000000000000000000000000000000000000000000000073ffffffffffffffffffffffffffffffffffffffff1663f6416ef68584602001516040518363ffffffff1660e01b8152600401611fee929190612b6b565b602060405180830381865afa158015612009573d5f803e3d5ffd5b505050506040513d601f19601f8201168201806040525081019061202d9190612ba6565b5b9050801561204457816060015192505050612062565b6040518060600160405280602881526020016131a360289139925050505b92915050565b6040518060e001604052805f81526020015f73ffffffffffffffffffffffffffffffffffffffff1681526020016060815260200160608152602001606081526020015f151581526020015f81525090565b5f80fd5b5f80fd5b5f819050919050565b6120d3816120c1565b81146120dd575f80fd5b50565b5f813590506120ee816120ca565b92915050565b5f60208284031215612109576121086120b9565b5b5f612116848285016120e0565b91505092915050565b612128816120c1565b82525050565b5f73ffffffffffffffffffffffffffffffffffffffff82169050919050565b5f6121578261212e565b9050919050565b6121678161214d565b82525050565b5f81519050919050565b5f82825260208201905092915050565b5f5b838110156121a4578082015181840152602081019050612189565b5f8484015250505050565b5f601f19601f8301169050919050565b5f6121c98261216d565b6121d38185612177565b93506121e3818560208601612187565b6121ec816121af565b840191505092915050565b5f8115159050919050565b61220b816121f7565b82525050565b5f60e0820190506122245f83018a61211f565b612231602083018961215e565b818103604083015261224381886121bf565b9050818103606083015261225781876121bf565b9050818103608083015261226b81866121bf565b905061227a60a0830185612202565b61228760c083018461211f565b98975050505050505050565b5f6020820190506122a65f83018461211f565b92915050565b5f81519050919050565b5f82825260208201905092915050565b5f819050602082019050919050565b6122de816120c1565b82525050565b6122ed8161214d565b82525050565b5f82825260208201905092915050565b5f61230d8261216d565b61231781856122f3565b9350612327818560208601612187565b612330816121af565b840191505092915050565b612344816121f7565b82525050565b5f60e083015f83015161235f5f8601826122d5565b50602083015161237260208601826122e4565b506040830151848203604086015261238a8282612303565b915050606083015184820360608601526123a48282612303565b915050608083015184820360808601526123be8282612303565b91505060a08301516123d360a086018261233b565b5060c08301516123e660c08601826122d5565b508091505092915050565b5f6123fc838361234a565b905092915050565b5f602082019050919050565b5f61241a826122ac565b61242481856122b6565b935083602082028501612436856122c6565b805f5b85811015612471578484038952815161245285826123f1565b945061245d83612404565b925060208a01995050600181019050612439565b50829750879550505050505092915050565b5f6020820190508181035f83015261249b8184612410565b905092915050565b5f80604083850312156124b9576124b86120b9565b5b5f6124c6858286016120e0565b92505060206124d7858286016120e0565b9150509250929050565b5f6080820190506124f45f83018761215e565b818103602083015261250681866121bf565b9050612515604083018561211f565b6125226060830184612202565b95945050505050565b6125348161214d565b811461253e575f80fd5b50565b5f8135905061254f8161252b565b92915050565b5f806040838503121561256b5761256a6120b9565b5b5f612578858286016120e0565b925050602061258985828601612541565b9150509250929050565b5f6020820190506125a65f830184612202565b92915050565b5f819050919050565b5f6125cf6125ca6125c58461212e565b6125ac565b61212e565b9050919050565b5f6125e0826125b5565b9050919050565b5f6125f1826125d6565b9050919050565b612601816125e7565b82525050565b5f60208201905061261a5f8301846125f8565b92915050565b5f80fd5b5f80fd5b5f80fd5b5f8083601f84011261264157612640612620565b5b8235905067ffffffffffffffff81111561265e5761265d612624565b5b60208301915083600182028301111561267a57612679612628565b5b9250929050565b5f805f60408486031215612698576126976120b9565b5b5f6126a5868287016120e0565b935050602084013567ffffffffffffffff8111156126c6576126c56120bd565b5b6126d28682870161262c565b92509250509250925092565b5f6126e8826125d6565b9050919050565b6126f8816126de565b82525050565b5f6020820190506127115f8301846126ef565b92915050565b5f81519050919050565b5f82825260208201905092915050565b5f819050602082019050919050565b5f608083015f8301516127555f8601826122e4565b506020830151848203602086015261276d8282612303565b915050604083015161278260408601826122d5565b506060830151612795606086018261233b565b508091505092915050565b5f6127ab8383612740565b905092915050565b5f602082019050919050565b5f6127c982612717565b6127d38185612721565b9350836020820285016127e585612731565b805f5b85811015612820578484038952815161280185826127a0565b945061280c836127b3565b925060208a019950506001810190506127e8565b50829750879550505050505092915050565b5f6060820190506128455f83018661211f565b6128526020830185612202565b818103604083015261286481846127bf565b9050949350505050565b612877816121f7565b8114612881575f80fd5b50565b5f813590506128928161286e565b92915050565b5f805f805f805f6080888a0312156128b3576128b26120b9565b5b5f88013567ffffffffffffffff8111156128d0576128cf6120bd565b5b6128dc8a828b0161262c565b9750975050602088013567ffffffffffffffff8111156128ff576128fe6120bd565b5b61290b8a828b0161262c565b9550955050604088013567ffffffffffffffff81111561292e5761292d6120bd565b5b61293a8a828b0161262c565b9350935050606061294d8a828b01612884565b91505092959891949750929550565b5f6020820190508181035f83015261297481846121bf565b905092915050565b7f4e487b71000000000000000000000000000000000000000000000000000000005f52602260045260245ffd5b5f60028204905060018216806129c057607f821691505b6020821081036129d3576129d261297c565b5b50919050565b7f4e487b71000000000000000000000000000000000000000000000000000000005f52604160045260245ffd5b7f4e487b71000000000000000000000000000000000000000000000000000000005f52603260045260245ffd5b7f506f7374206e6f7420666f756e640000000000000000000000000000000000005f82015250565b5f612a67600e83612177565b9150612a7282612a33565b602082019050919050565b5f6020820190508181035f830152612a9481612a5b565b9050919050565b7f4e6f7420617574686f72697a656420746f2064656c65746500000000000000005f82015250565b5f612acf601883612177565b9150612ada82612a9b565b602082019050919050565b5f6020820190508181035f830152612afc81612ac3565b9050919050565b7f416c72656164792064656c6574656400000000000000000000000000000000005f82015250565b5f612b37600f83612177565b9150612b4282612b03565b602082019050919050565b5f6020820190508181035f830152612b6481612b2b565b9050919050565b5f604082019050612b7e5f83018561215e565b612b8b602083018461215e565b9392505050565b5f81519050612ba08161286e565b92915050565b5f60208284031215612bbb57612bba6120b9565b5b5f612bc884828501612b92565b91505092915050565b7f4c6f636b65643a2073756273637269626520746f20756e6c6f636b20746869735f8201527f20636f6e74656e74000000000000000000000000000000000000000000000000602082015250565b5f612c2b602883612177565b9150612c3682612bd1565b604082019050919050565b5f6020820190508181035f830152612c5881612c1f565b9050919050565b7f4e487b71000000000000000000000000000000000000000000000000000000005f52601160045260245ffd5b5f612c96826120c1565b91505f8203612ca857612ca7612c5f565b5b600182039050919050565b5f612cbd826120c1565b91507fffffffffffffffffffffffffffffffffffffffffffffffffffffffffffffffff8203612cef57612cee612c5f565b5b600182019050919050565b7f436f6d6d656e742063616e6e6f7420626520656d7074790000000000000000005f82015250565b5f612d2e601783612177565b9150612d3982612cfa565b602082019050919050565b5f6020820190508181035f830152612d5b81612d22565b9050919050565b5f819050815f5260205f209050919050565b5f6020601f8301049050919050565b5f82821b905092915050565b5f60088302612dbe7fffffffffffffffffffffffffffffffffffffffffffffffffffffffffffffffff82612d83565b612dc88683612d83565b95508019841693508086168417925050509392505050565b5f612dfa612df5612df0846120c1565b6125ac565b6120c1565b9050919050565b5f819050919050565b612e1383612de0565b612e27612e1f82612e01565b848454612d8f565b825550505050565b5f90565b612e3b612e2f565b612e46818484612e0a565b505050565b5b81811015612e6957612e5e5f82612e33565b600181019050612e4c565b5050565b601f821115612eae57612e7f81612d62565b612e8884612d74565b81016020851015612e97578190505b612eab612ea385612d74565b830182612e4b565b50505b505050565b5f82821c905092915050565b5f612ece5f1984600802612eb3565b1980831691505092915050565b5f612ee68383612ebf565b9150826002028217905092915050565b612eff8261216d565b67ffffffffffffffff811115612f1857612f176129d9565b5b612f2282546129a9565b612f2d828285612e6d565b5f60209050601f831160018114612f5e575f8415612f4c578287015190505b612f568582612edb565b865550612fbd565b601f198416612f6c86612d62565b5f5b82811015612f9357848901518255600182019150602085019450602081019050612f6e565b86831015612fb05784890151612fac601f891682612ebf565b8355505b6001600288020188555050505b505050505050565b828183375f83830152505050565b5f612fde8385612177565b9350612feb838584612fc5565b612ff4836121af565b840190509392505050565b5f6020820190508181035f830152613018818486612fd3565b90509392505050565b5f6020820190506130345f83018461215e565b92915050565b7f52656769737465722061732063726561746f72206669727374000000000000005f82015250565b5f61306e601983612177565b91506130798261303a565b602082019050919050565b5f6020820190508181035f83015261309b81613062565b9050919050565b7f5469746c652072657175697265640000000000000000000000000000000000005f82015250565b5f6130d6600e83612177565b91506130e1826130a2565b602082019050919050565b5f6020820190508181035f830152613103816130ca565b9050919050565b7f436f6e74656e74207265717569726564000000000000000000000000000000005f82015250565b5f61313e601083612177565b91506131498261310a565b602082019050919050565b5f6020820190508181035f83015261316b81613132565b9050919050565b5f6040820190508181035f83015261318b818587612fd3565b905061319a6020830184612202565b94935050505056fe4c6f636b65643a2073756273637269626520746f20756e6c6f636b207468697320636f6e74656e74a264697066735822122010d1fa0353c9109ba328481d667079c2ab8cb8e2b049753e361d1beb08b64e2564736f6c63430008180033",
  "linkReferences": {},
  "deployedLinkReferences": {}
}