{
  "_format": "hh-sol-artifact-1",
  "contractName": "PostManager",
  "sourceName": "contracts/PostManager.sol",
  "abi": [
    {
      "inputs": [
        {
          "internalType": "address",
          "name": "creatorRegistryAddress",
          "type": "address"
        },
        {
          "internalType": "address",
          "name": "subscriptionManagerAddress",
          "type": "address"
        }
      ],
      "stateMutability": "nonpayable",
      "type": "constructor"
    },
    {
      "anonymous": false,
      "inputs": [
        {
          "indexed": true,
          "internalType": "uint256",
          "name": "postId",
          "type": "uint256"
        },
        {
          "indexed": true,
          "internalType": "address",
          "name": "creator",
          "type": "address"
        },
        {
          "indexed": false,
          "internalType": "string",
          "name": "title",
          "type": "string"
        },
        {
          "indexed": false,
          "internalType": "bool",
          "name": "isPremium",
          "type": "bool"
        }
      ],
      "name": "PostCreated",
      "type": "event"
    },
    {
      "inputs": [
        {
          "internalType": "string",
          "name": "title",
          "type": "string"
        },
        {
          "internalType": "string",
          "name": "content",
          "type": "string"
        },
        {
          "internalType": "bool",
          "name": "isPremium",
          "type": "bool"
        }
      ],
      "name": "createPost",
      "outputs": [],
      "stateMutability": "nonpayable",
      "type": "function"
    },
    {
      "inputs": [],
      "name": "creatorRegistry",
      "outputs": [
        {
          "internalType": "contract ICreatorRegistryForPosts",
          "name": "",
          "type": "address"
        }
      ],
      "stateMutability": "view",
      "type": "function"
    },
    {
      "inputs": [],
      "name": "getAllPosts",
      "outputs": [
        {
          "components": [
            {
              "internalType": "uint256",
              "name": "id",
              "type": "uint256"
            },
            {
              "internalType": "address",
              "name": "creator",
              "type": "address"
            },
            {
              "internalType": "string",
              "name": "title",
              "type": "string"
            },
            {
              "internalType": "string",
              "name": "content",
              "type": "string"
            },
            {
              "internalType": "bool",
              "name": "isPremium",
              "type": "bool"
            },
            {
              "internalType": "uint256",
              "name": "createdAt",
              "type": "uint256"
            }
          ],
          "internalType": "struct PostManager.Post[]",
          "name": "",
          "type": "tuple[]"
        }
      ],
      "stateMutability": "view",
      "type": "function"
    },
    {
      "inputs": [
        {
          "internalType": "uint256",
          "name": "postId",
          "type": "uint256"
        },
        {
          "internalType": "address",
          "name": "viewer",
          "type": "address"
        }
      ],
      "name": "getVisibleContent",
      "outputs": [
        {
          "internalType": "string",
          "name": "",
          "type": "string"
        }
      ],
      "stateMutability": "view",
      "type": "function"
    },
    {
      "inputs": [],
      "name": "postCount",
      "outputs": [
        {
          "internalType": "uint256",
          "name": "",
          "type": "uint256"
        }
      ],
      "stateMutability": "view",
      "type": "function"
    },
    {
      "inputs": [
        {
          "internalType": "uint256",
          "name": "",
          "type": "uint256"
        }
      ],
      "name": "posts",
      "outputs": [
        {
          "internalType": "uint256",
          "name": "id",
          "type": "uint256"
        },
        {
          "internalType": "address",
          "name": "creator",
          "type": "address"
        },
        {
          "internalType": "string",
          "name": "title",
          "type": "string"
        },
        {
          "internalType": "string",
          "name": "content",
          "type": "string"
        },
        {
          "internalType": "bool",
          "name": "isPremium",
          "type": "bool"
        },
        {
          "internalType": "uint256",
          "name": "createdAt",
          "type": "uint256"
        }
      ],
      "stateMutability": "view",
      "type": "function"
    },
    {
      "inputs": [],
      "name": "subscriptionManager",
      "outputs": [
        {
          "internalType": "contract ISubscriptionManager",
          "name": "",
          "type": "address"
        }
      ],
      "stateMutability": "view",
      "type": "function"
    }
  ],
  "bytecode": "0x60c06040523480156200001157600080fd5b5060405162001b6538038062001b65833981810160405281019062000037919062000111565b8173ffffffffffffffffffffffffffffffffffffffff1660808173ffffffffffffffffffffffffffffffffffffffff16815250508073ffffffffffffffffffffffffffffffffffffffff1660a08173ffffffffffffffffffffffffffffffffffffffff1681525050505062000158565b600080fd5b600073ffffffffffffffffffffffffffffffffffffffff82169050919050565b6000620000d982620000ac565b9050919050565b620000eb81620000cc565b8114620000f757600080fd5b50565b6000815190506200010b81620000e0565b92915050565b600080604083850312156200012b576200012a620000a7565b5b60006200013b85828601620000fa565b92505060206200014e85828601620000fa565b9150509250929050565b60805160a0516119d96200018c600039600081816105a70152610bc001526000818161058301526105cb01526119d96000f3fe608060405234801561001057600080fd5b506004361061007d5760003560e01c80639a6a5cf01161005b5780639a6a5cf0146100f3578063bf158fd214610111578063c250bd811461012f578063f1a51ce41461014b5761007d565b80630b1e7f831461008257806317906c2e146100b757806330561100146100d5575b600080fd5b61009c60048036038101906100979190610d27565b61017b565b6040516100ae96959493929190610e4f565b60405180910390f35b6100bf6102f4565b6040516100cc9190610ebe565b60405180910390f35b6100dd6102fa565b6040516100ea91906110a2565b60405180910390f35b6100fb610581565b6040516101089190611123565b60405180910390f35b6101196105a5565b604051610126919061115f565b60405180910390f35b6101496004803603810190610144919061120b565b6105c9565b005b610165600480360381019061016091906112cc565b610959565b604051610172919061130c565b60405180910390f35b60016020528060005260406000206000915090508060000154908060010160009054906101000a900473ffffffffffffffffffffffffffffffffffffffff16908060020180546101ca9061135d565b80601f01602080910402602001604051908101604052809291908181526020018280546101f69061135d565b80156102435780601f1061021857610100808354040283529160200191610243565b820191906000526020600020905b81548152906001019060200180831161022657829003601f168201915b5050505050908060030180546102589061135d565b80601f01602080910402602001604051908101604052809291908181526020018280546102849061135d565b80156102d15780601f106102a6576101008083540402835291602001916102d1565b820191906000526020600020905b8154815290600101906020018083116102b457829003601f168201915b5050505050908060040160009054906101000a900460ff16908060050154905086565b60005481565b6060600060028054905067ffffffffffffffff81111561031d5761031c61138e565b5b60405190808252806020026020018201604052801561035657816020015b610343610c99565b81526020019060019003908161033b5790505b50905060005b600280549050811015610579576001600060028381548110610381576103806113bd565b5b906000526020600020015481526020019081526020016000206040518060c0016040529081600082015481526020016001820160009054906101000a900473ffffffffffffffffffffffffffffffffffffffff1673ffffffffffffffffffffffffffffffffffffffff1673ffffffffffffffffffffffffffffffffffffffff1681526020016002820180546104159061135d565b80601f01602080910402602001604051908101604052809291908181526020018280546104419061135d565b801561048e5780601f106104635761010080835404028352916020019161048e565b820191906000526020600020905b81548152906001019060200180831161047157829003601f168201915b505050505081526020016003820180546104a79061135d565b80601f01602080910402602001604051908101604052809291908181526020018280546104d39061135d565b80156105205780601f106104f557610100808354040283529160200191610520565b820191906000526020600020905b81548152906001019060200180831161050357829003601f168201915b505050505081526020016004820160009054906101000a900460ff16151515158152602001600582015481525050828281518110610561576105606113bd565b5b6020026020010181905250808060010191505061035c565b508091505090565b7f000000000000000000000000000000000000000000000000000000000000000081565b7f000000000000000000000000000000000000000000000000000000000000000081565b7f000000000000000000000000000000000000000000000000000000000000000073ffffffffffffffffffffffffffffffffffffffff1663914eaf5a336040518263ffffffff1660e01b815260040161062291906113ec565b602060405180830381865afa15801561063f573d6000803e3d6000fd5b505050506040513d601f19601f82011682018060405250810190610663919061141c565b6106a2576040517f08c379a000000000000000000000000000000000000000000000000000000000815260040161069990611495565b60405180910390fd5b600085859050116106e8576040517f08c379a00000000000000000000000000000000000000000000000000000000081526004016106df90611501565b60405180910390fd5b6000838390501161072e576040517f08c379a00000000000000000000000000000000000000000000000000000000081526004016107259061156d565b60405180910390fd5b600080815480929190610740906115bc565b91905055506040518060c0016040528060005481526020013373ffffffffffffffffffffffffffffffffffffffff16815260200186868080601f016020809104026020016040519081016040528093929190818152602001838380828437600081840152601f19601f82011690508083019250505050505050815260200184848080601f016020809104026020016040519081016040528093929190818152602001838380828437600081840152601f19601f82011690508083019250505050505050815260200182151581526020014281525060016000805481526020019081526020016000206000820151816000015560208201518160010160006101000a81548173ffffffffffffffffffffffffffffffffffffffff021916908373ffffffffffffffffffffffffffffffffffffffff160217905550604082015181600201908161088e91906117a6565b5060608201518160030190816108a491906117a6565b5060808201518160040160006101000a81548160ff02191690831515021790555060a08201518160050155905050600260005490806001815401808255809150506001900390600052602060002001600090919091909150553373ffffffffffffffffffffffffffffffffffffffff166000547fd29c05ce35227cd87e52d185ea77a88bf947eb152c22f5206a691fa5c64299d087878560405161094a939291906118b4565b60405180910390a35050505050565b60606000600160008581526020019081526020016000206040518060c0016040529081600082015481526020016001820160009054906101000a900473ffffffffffffffffffffffffffffffffffffffff1673ffffffffffffffffffffffffffffffffffffffff1673ffffffffffffffffffffffffffffffffffffffff1681526020016002820180546109eb9061135d565b80601f0160208091040260200160405190810160405280929190818152602001828054610a179061135d565b8015610a645780601f10610a3957610100808354040283529160200191610a64565b820191906000526020600020905b815481529060010190602001808311610a4757829003601f168201915b50505050508152602001600382018054610a7d9061135d565b80601f0160208091040260200160405190810160405280929190818152602001828054610aa99061135d565b8015610af65780601f10610acb57610100808354040283529160200191610af6565b820191906000526020600020905b815481529060010190602001808311610ad957829003601f168201915b505050505081526020016004820160009054906101000a900460ff1615151515815260200160058201548152505090506000816000015103610b6d576040517f08c379a0000000000000000000000000000000000000000000000000000000008152600401610b6490611932565b60405180910390fd5b8060800151610b83578060600151915050610c93565b6000816020015173ffffffffffffffffffffffffffffffffffffffff168473ffffffffffffffffffffffffffffffffffffffff161480610c5f57507f000000000000000000000000000000000000000000000000000000000000000073ffffffffffffffffffffffffffffffffffffffff1663f6416ef68584602001516040518363ffffffff1660e01b8152600401610c1d929190611952565b602060405180830381865afa158015610c3a573d6000803e3d6000fd5b505050506040513d601f19601f82011682018060405250810190610c5e919061141c565b5b90508015610c7557816060015192505050610c93565b60405180606001604052806028815260200161197c60289139925050505b92915050565b6040518060c0016040528060008152602001600073ffffffffffffffffffffffffffffffffffffffff1681526020016060815260200160608152602001600015158152602001600081525090565b600080fd5b600080fd5b6000819050919050565b610d0481610cf1565b8114610d0f57600080fd5b50565b600081359050610d2181610cfb565b92915050565b600060208284031215610d3d57610d3c610ce7565b5b6000610d4b84828501610d12565b91505092915050565b610d5d81610cf1565b82525050565b600073ffffffffffffffffffffffffffffffffffffffff82169050919050565b6000610d8e82610d63565b9050919050565b610d9e81610d83565b82525050565b600081519050919050565b600082825260208201905092915050565b60005b83811015610dde578082015181840152602081019050610dc3565b60008484015250505050565b6000601f19601f8301169050919050565b6000610e0682610da4565b610e108185610daf565b9350610e20818560208601610dc0565b610e2981610dea565b840191505092915050565b60008115159050919050565b610e4981610e34565b82525050565b600060c082019050610e646000830189610d54565b610e716020830188610d95565b8181036040830152610e838187610dfb565b90508181036060830152610e978186610dfb565b9050610ea66080830185610e40565b610eb360a0830184610d54565b979650505050505050565b6000602082019050610ed36000830184610d54565b92915050565b600081519050919050565b600082825260208201905092915050565b6000819050602082019050919050565b610f0e81610cf1565b82525050565b610f1d81610d83565b82525050565b600082825260208201905092915050565b6000610f3f82610da4565b610f498185610f23565b9350610f59818560208601610dc0565b610f6281610dea565b840191505092915050565b610f7681610e34565b82525050565b600060c083016000830151610f946000860182610f05565b506020830151610fa76020860182610f14565b5060408301518482036040860152610fbf8282610f34565b91505060608301518482036060860152610fd98282610f34565b9150506080830151610fee6080860182610f6d565b5060a083015161100160a0860182610f05565b508091505092915050565b60006110188383610f7c565b905092915050565b6000602082019050919050565b600061103882610ed9565b6110428185610ee4565b93508360208202850161105485610ef5565b8060005b858110156110905784840389528151611071858261100c565b945061107c83611020565b925060208a01995050600181019050611058565b50829750879550505050505092915050565b600060208201905081810360008301526110bc818461102d565b905092915050565b6000819050919050565b60006110e96110e46110df84610d63565b6110c4565b610d63565b9050919050565b60006110fb826110ce565b9050919050565b600061110d826110f0565b9050919050565b61111d81611102565b82525050565b60006020820190506111386000830184611114565b92915050565b6000611149826110f0565b9050919050565b6111598161113e565b82525050565b60006020820190506111746000830184611150565b92915050565b600080fd5b600080fd5b600080fd5b60008083601f84011261119f5761119e61117a565b5b8235905067ffffffffffffffff8111156111bc576111bb61117f565b5b6020830191508360018202830111156111d8576111d7611184565b5b9250929050565b6111e881610e34565b81146111f357600080fd5b50565b600081359050611205816111df565b92915050565b60008060008060006060868803121561122757611226610ce7565b5b600086013567ffffffffffffffff81111561124557611244610cec565b5b61125188828901611189565b9550955050602086013567ffffffffffffffff81111561127457611273610cec565b5b61128088828901611189565b93509350506040611293888289016111f6565b9150509295509295909350565b6112a981610d83565b81146112b457600080fd5b50565b6000813590506112c6816112a0565b92915050565b600080604083850312156112e3576112e2610ce7565b5b60006112f185828601610d12565b9250506020611302858286016112b7565b9150509250929050565b600060208201905081810360008301526113268184610dfb565b905092915050565b7f4e487b7100000000000000000000000000000000000000000000000000000000600052602260045260246000fd5b6000600282049050600182168061137557607f821691505b6020821081036113885761138761132e565b5b50919050565b7f4e487b7100000000000000000000000000000000000000000000000000000000600052604160045260246000fd5b7f4e487b7100000000000000000000000000000000000000000000000000000000600052603260045260246000fd5b60006020820190506114016000830184610d95565b92915050565b600081519050611416816111df565b92915050565b60006020828403121561143257611431610ce7565b5b600061144084828501611407565b91505092915050565b7f52656769737465722061732063726561746f7220666972737400000000000000600082015250565b600061147f601983610daf565b915061148a82611449565b602082019050919050565b600060208201905081810360008301526114ae81611472565b9050919050565b7f5469746c65207265717569726564000000000000000000000000000000000000600082015250565b60006114eb600e83610daf565b91506114f6826114b5565b602082019050919050565b6000602082019050818103600083015261151a816114de565b9050919050565b7f436f6e74656e7420726571756972656400000000000000000000000000000000600082015250565b6000611557601083610daf565b915061156282611521565b602082019050919050565b600060208201905081810360008301526115868161154a565b9050919050565b7f4e487b7100000000000000000000000000000000000000000000000000000000600052601160045260246000fd5b60006115c782610cf1565b91507fffffffffffffffffffffffffffffffffffffffffffffffffffffffffffffffff82036115f9576115f861158d565b5b600182019050919050565b60008190508160005260206000209050919050565b60006020601f8301049050919050565b600082821b905092915050565b6000600883026116667fffffffffffffffffffffffffffffffffffffffffffffffffffffffffffffffff82611629565b6116708683611629565b95508019841693508086168417925050509392505050565b60006116a361169e61169984610cf1565b6110c4565b610cf1565b9050919050565b6000819050919050565b6116bd83611688565b6116d16116c9826116aa565b848454611636565b825550505050565b600090565b6116e66116d9565b6116f18184846116b4565b505050565b5b818110156117155761170a6000826116de565b6001810190506116f7565b5050565b601f82111561175a5761172b81611604565b61173484611619565b81016020851015611743578190505b61175761174f85611619565b8301826116f6565b50505b505050565b600082821c905092915050565b600061177d6000198460080261175f565b1980831691505092915050565b6000611796838361176c565b9150826002028217905092915050565b6117af82610da4565b67ffffffffffffffff8111156117c8576117c761138e565b5b6117d2825461135d565b6117dd828285611719565b600060209050601f83116001811461181057600084156117fe578287015190505b611808858261178a565b865550611870565b601f19841661181e86611604565b60005b8281101561184657848901518255600182019150602085019450602081019050611821565b86831015611863578489015161185f601f89168261176c565b8355505b6001600288020188555050505b505050505050565b82818337600083830152505050565b60006118938385610daf565b93506118a0838584611878565b6118a983610dea565b840190509392505050565b600060408201905081810360008301526118cf818587611887565b90506118de6020830184610e40565b949350505050565b7f506f7374206e6f7420666f756e64000000000000000000000000000000000000600082015250565b600061191c600e83610daf565b9150611927826118e6565b602082019050919050565b6000602082019050818103600083015261194b8161190f565b9050919050565b60006040820190506119676000830185610d95565b6119746020830184610d95565b939250505056fe4c6f636b65643a2073756273637269626520746f20756e6c6f636b207468697320636f6e74656e74a2646970667358221220d25843858e3a1d4279f80b7f4d5434cb1530888a5ee94d30082f4a1468a2305164736f6c63430008180033",
  "linkReferences": {},
  "deployedLinkReferences": {}
}