{
  "_format": "hh-sol-artifact-1",
  "contractName": "PostCollectible",
  "sourceName": "contracts/PostCollectible.sol",
  "abi": [
    {
      "inputs": [
        {
          "internalType": "address",
          "name": "postManagerAddress",
          "type": "address"
        }
      ],
      "stateMutability": "nonpayable",
      "type": "constructor"
    },
    {
      "inputs": [
        {
          "internalType": "address",
          "name": "sender",
          "type": "address"
        },
        {
          "internalType": "uint256",
          "name": "tokenId",
          "type": "uint256"
        },
        {
          "internalType": "address",
          "name": "owner",
          "type": "address"
        }
      ],
      "name": "ERC721IncorrectOwner",
      "type": "error"
    },
    {
      "inputs": [
        {
          "internalType": "address",
          "name": "operator",
          "type": "address"
        },
        {
          "internalType": "uint256",
          "name": "tokenId",
          "type": "uint256"
        }
      ],
      "name": "ERC721InsufficientApproval",
      "type": "error"
    },
    {
      "inputs": [
        {
          "internalType": "address",
          "name": "approver",
          "type": "address"
        }
      ],
      "name": "ERC721InvalidApprover",
      "type": "error"
    },
    {
      "inputs": [
        {
          "internalType": "address",
          "name": "operator",
          "type": "address"
        }
      ],
      "name": "ERC721InvalidOperator",
      "type": "error"
    },
    {
      "inputs": [
        {
          "internalType": "address",
          "name": "owner",
          "type": "address"
        }
      ],
      "name": "ERC721InvalidOwner",
      "type": "error"
    },
    {
      "inputs": [
        {
          "internalType": "address",
          "name": "receiver",
          "type": "address"
        }
      ],
      "name": "ERC721InvalidReceiver",
      "type": "error"
    },
    {
      "inputs": [
        {
          "internalType": "address",
          "name": "sender",
          "type": "address"
        }
      ],
      "name": "ERC721InvalidSender",
      "type": "error"
    },
    {
      "inputs": [
        {
          "internalType": "uint256",
          "name": "tokenId",
          "type": "uint256"
        }
      ],
      "name": "ERC721NonexistentToken",
      "type": "error"
    },
    {
      "anonymous": false,
      "inputs": [
        {
          "indexed": true,
          "internalType": "address",
          "name": "owner",
          "type": "address"
        },
        {
          "indexed": true,
          "internalType": "address",
          "name": "approved",
          "type": "address"
        },
        {
          "indexed": true,
          "internalType": "uint256",
          "name": "tokenId",
          "type": "uint256"
        }
      ],
      "name": "Approval",
      "type": "event"
    },
    {
      "anonymous": false,
      "inputs": [
        {
          "indexed": true,
          "internalType": "address",
          "name": "owner",
          "type": "address"
        },
        {
          "indexed": true,
          "internalType": "address",
          "name": "operator",
          "type": "address"
        },
        {
          "indexed": false,
          "internalType": "bool",
          "name": "approved",
          "type": "bool"
        }
      ],
      "name": "ApprovalForAll",
      "type": "event"
    },
    {
      "anonymous": false,
      "inputs": [
        {
          "indexed": false,
          "internalType": "uint256",
          "name": "_fromTokenId",
          "type": "uint256"
        },
        {
          "indexed": false,
          "internalType": "uint256",
          "name": "_toTokenId",
          "type": "uint256"
        }
      ],
      "name": "BatchMetadataUpdate",
      "type": "event"
    },
    {
      "anonymous": false,
      "inputs": [
        {
          "indexed": false,
          "internalType": "uint256",
          "name": "_tokenId",
          "type": "uint256"
        }
      ],
      "name": "MetadataUpdate",
      "type": "event"
    },
    {
      "anonymous": false,
      "inputs": [
        {
          "indexed": true,
          "internalType": "uint256",
          "name": "tokenId",
          "type": "uint256"
        },
        {
          "indexed": true,
          "internalType": "uint256",
          "name": "postId",
          "type": "uint256"
        },
        {
          "indexed": false,
          "internalType": "address",
          "name": "minter",
          "type": "address"
        }
      ],
      "name": "PostMinted",
      "type": "event"
    },
    {
      "anonymous": false,
      "inputs": [
        {
          "indexed": true,
          "internalType": "address",
          "name": "from",
          "type": "address"
        },
        {
          "indexed": true,
          "internalType": "address",
          "name": "to",
          "type": "address"
        },
        {
          "indexed": true,
          "internalType": "uint256",
          "name": "tokenId",
          "type": "uint256"
        }
      ],
      "name": "Transfer",
      "type": "event"
    },
    {
      "inputs": [],
      "name": "MINT_PRICE",
      "outputs": [
        {
          "internalType": "uint256",
          "name": "",
          "type": "uint256"
        }
      ],
      "stateMutability": "view",
      "type": "function"
    },
    {
      "inputs": [
        {
          "internalType": "address",
          "name": "to",
          "type": "address"
        },
        {
          "internalType": "uint256",
          "name": "tokenId",
          "type": "uint256"
        }
      ],
      "name": "approve",
      "outputs": [],
      "stateMutability": "nonpayable",
      "type": "function"
    },
    {
      "inputs": [
        {
          "internalType": "address",
          "name": "owner",
          "type": "address"
        }
      ],
      "name": "balanceOf",
      "outputs": [
        {
          "internalType": "uint256",
          "name": "",
          "type": "uint256"
        }
      ],
      "stateMutability": "view",
      "type": "function"
    },
    {
      "inputs": [
        {
          "internalType": "uint256",
          "name": "tokenId",
          "type": "uint256"
        }
      ],
      "name": "getApproved",
      "outputs": [
        {
          "internalType": "address",
          "name": "",
          "type": "address"
        }
      ],
      "stateMutability": "view",
      "type": "function"
    },
    {
      "inputs": [
        {
          "internalType": "address",
          "name": "owner",
          "type": "address"
        },
        {
          "internalType": "address",
          "name": "operator",
          "type": "address"
        }
      ],
      "name": "isApprovedForAll",
      "outputs": [
        {
          "internalType": "bool",
          "name": "",
          "type": "bool"
        }
      ],
      "stateMutability": "view",
      "type": "function"
    },
    {
      "inputs": [
        {
          "internalType": "uint256",
          "name": "postId",
          "type": "uint256"
        },
        {
          "internalType": "string",
          "name": "tokenURI",
          "type": "string"
        }
      ],
      "name": "mintPost",
      "outputs": [],
      "stateMutability": "payable",
      "type": "function"
    },
    {
      "inputs": [],
      "name": "name",
      "outputs": [
        {
          "internalType": "string",
          "name": "",
          "type": "string"
        }
      ],
      "stateMutability": "view",
      "type": "function"
    },
    {
      "inputs": [
        {
          "internalType": "uint256",
          "name": "tokenId",
          "type": "uint256"
        }
      ],
      "name": "ownerOf",
      "outputs": [
        {
          "internalType": "address",
          "name": "",
          "type": "address"
        }
      ],
      "stateMutability": "view",
      "type": "function"
    },
    {
      "inputs": [],
      "name": "postManager",
      "outputs": [
        {
          "internalType": "contract IPostManager",
          "name": "",
          "type": "address"
        }
      ],
      "stateMutability": "view",
      "type": "function"
    },
    {
      "inputs": [
        {
          "internalType": "address",
          "name": "from",
          "type": "address"
        },
        {
          "internalType": "address",
          "name": "to",
          "type": "address"
        },
        {
          "internalType": "uint256",
          "name": "tokenId",
          "type": "uint256"
        }
      ],
      "name": "safeTransferFrom",
      "outputs": [],
      "stateMutability": "nonpayable",
      "type": "function"
    },
    {
      "inputs": [
        {
          "internalType": "address",
          "name": "from",
          "type": "address"
        },
        {
          "internalType": "address",
          "name": "to",
          "type": "address"
        },
        {
          "internalType": "uint256",
          "name": "tokenId",
          "type": "uint256"
        },
        {
          "internalType": "bytes",
          "name": "data",
          "type": "bytes"
        }
      ],
      "name": "safeTransferFrom",
      "outputs": [],
      "stateMutability": "nonpayable",
      "type": "function"
    },
    {
      "inputs": [
        {
          "internalType": "address",
          "name": "operator",
          "type": "address"
        },
        {
          "internalType": "bool",
          "name": "approved",
          "type": "bool"
        }
      ],
      "name": "setApprovalForAll",
      "outputs": [],
      "stateMutability": "nonpayable",
      "type": "function"
    },
    {
      "inputs": [
        {
          "internalType": "bytes4",
          "name": "interfaceId",
          "type": "bytes4"
        }
      ],
      "name": "supportsInterface",
      "outputs": [
        {
          "internalType": "bool",
          "name": "",
          "type": "bool"
        }
      ],
      "stateMutability": "view",
      "type": "function"
    },
    {
      "inputs": [],
      "name": "symbol",
      "outputs": [
        {
          "internalType": "string",
          "name": "",
          "type": "string"
        }
      ],
      "stateMutability": "view",
      "type": "function"
    },
    {
      "inputs": [
        {
          "internalType": "uint256",
          "name": "tokenId",
          "type": "uint256"
        }
      ],
      "name": "tokenURI",
      "outputs": [
        {
          "internalType": "string",
          "name": "",
          "type": "string"
        }
      ],
      "stateMutability": "view",
      "type": "function"
    },
    {
      "inputs": [
        {
          "internalType": "address",
          "name": "from",
          "type": "address"
        },
        {
          "internalType": "address",
          "name": "to",
          "type": "address"
        },
        {
          "internalType": "uint256",
          "name": "tokenId",
          "type": "uint256"
        }
      ],
      "name": "transferFrom",
      "outputs": [],
      "stateMutability": "nonpayable",
      "type": "function"
    }
  ],
  "bytecode": "0x60a060405234801562000010575f80fd5b5060405162002cd638038062002cd683398181016040528101906200003691906200016f565b6040518060400160405280601a81526020017f536f63696f4e65726420506f737420436f6c6c65637469626c650000000000008152506040518060400160405280600481526020017f534e504300000000000000000000000000000000000000000000000000000000815250815f9081620000b2919062000403565b508060019081620000c4919062000403565b5050508073ffffffffffffffffffffffffffffffffffffffff1660808173ffffffffffffffffffffffffffffffffffffffff1681525050600160078190555050620004e7565b5f80fd5b5f73ffffffffffffffffffffffffffffffffffffffff82169050919050565b5f62000139826200010e565b9050919050565b6200014b816200012d565b811462000156575f80fd5b50565b5f81519050620001698162000140565b92915050565b5f602082840312156200018757620001866200010a565b5b5f620001968482850162000159565b91505092915050565b5f81519050919050565b7f4e487b71000000000000000000000000000000000000000000000000000000005f52604160045260245ffd5b7f4e487b71000000000000000000000000000000000000000000000000000000005f52602260045260245ffd5b5f60028204905060018216806200021b57607f821691505b602082108103620002315762000230620001d6565b5b50919050565b5f819050815f5260205f209050919050565b5f6020601f8301049050919050565b5f82821b905092915050565b5f60088302620002957fffffffffffffffffffffffffffffffffffffffffffffffffffffffffffffffff8262000258565b620002a1868362000258565b95508019841693508086168417925050509392505050565b5f819050919050565b5f819050919050565b5f620002eb620002e5620002df84620002b9565b620002c2565b620002b9565b9050919050565b5f819050919050565b6200030683620002cb565b6200031e6200031582620002f2565b84845462000264565b825550505050565b5f90565b6200033462000326565b62000341818484620002fb565b505050565b5b8181101562000368576200035c5f826200032a565b60018101905062000347565b5050565b601f821115620003b757620003818162000237565b6200038c8462000249565b810160208510156200039c578190505b620003b4620003ab8562000249565b83018262000346565b50505b505050565b5f82821c905092915050565b5f620003d95f1984600802620003bc565b1980831691505092915050565b5f620003f38383620003c8565b9150826002028217905092915050565b6200040e826200019f565b67ffffffffffffffff8111156200042a5762000429620001a9565b5b62000436825462000203565b620004438282856200036c565b5f60209050601f83116001811462000479575f841562000464578287015190505b620004708582620003e6565b865550620004df565b601f198416620004898662000237565b5f5b82811015620004b2578489015182556001820191506020850194506020810190506200048b565b86831015620004d25784890151620004ce601f891682620003c8565b8355505b6001600288020188555050505b505050505050565b6080516127cf620005075f395f818161044c01526108b201526127cf5ff3fe6080604052600436106100f2575f3560e01c806370a0823111610089578063c002d23d11610058578063c002d23d1461032c578063c87b56dd14610356578063d3019b0814610392578063e985e9c5146103ae576100f2565b806370a082311461027657806395d89b41146102b2578063a22cb465146102dc578063b88d4fde14610304576100f2565b8063095ea7b3116100c5578063095ea7b3146101c257806323b872dd146101ea57806342842e0e146102125780636352211e1461023a576100f2565b806301ffc9a7146100f65780630368e69d1461013257806306fdde031461015c578063081812fc14610186575b5f80fd5b348015610101575f80fd5b5061011c60048036038101906101179190611b0e565b6103ea565b6040516101299190611b53565b60405180910390f35b34801561013d575f80fd5b5061014661044a565b6040516101539190611be6565b60405180910390f35b348015610167575f80fd5b5061017061046e565b60405161017d9190611c89565b60405180910390f35b348015610191575f80fd5b506101ac60048036038101906101a79190611cdc565b6104fd565b6040516101b99190611d27565b60405180910390f35b3480156101cd575f80fd5b506101e860048036038101906101e39190611d6a565b610518565b005b3480156101f5575f80fd5b50610210600480360381019061020b9190611da8565b61052e565b005b34801561021d575f80fd5b5061023860048036038101906102339190611da8565b61062d565b005b348015610245575f80fd5b50610260600480360381019061025b9190611cdc565b61064c565b60405161026d9190611d27565b60405180910390f35b348015610281575f80fd5b5061029c60048036038101906102979190611df8565b61065d565b6040516102a99190611e32565b60405180910390f35b3480156102bd575f80fd5b506102c6610713565b6040516102d39190611c89565b60405180910390f35b3480156102e7575f80fd5b5061030260048036038101906102fd9190611e75565b6107a3565b005b34801561030f575f80fd5b5061032a60048036038101906103259190611fdf565b6107b9565b005b348015610337575f80fd5b506103406107de565b60405161034d9190611e32565b60405180910390f35b348015610361575f80fd5b5061037c60048036038101906103779190611cdc565b6107e9565b6040516103899190611c89565b60405180910390f35b6103ac60048036038101906103a791906120fd565b610865565b005b3480156103b9575f80fd5b506103d460048036038101906103cf9190612157565b610a68565b6040516103e19190611b53565b60405180910390f35b5f634906490660e01b7bffffffffffffffffffffffffffffffffffffffffffffffffffffffff1916827bffffffffffffffffffffffffffffffffffffffffffffffffffffffff19161480610443575061044282610af6565b5b9050919050565b7f000000000000000000000000000000000000000000000000000000000000000081565b60605f805461047c906121c2565b80601f01602080910402602001604051908101604052809291908181526020018280546104a8906121c2565b80156104f35780601f106104ca576101008083540402835291602001916104f3565b820191905f5260205f20905b8154815290600101906020018083116104d657829003601f168201915b5050505050905090565b5f61050782610bd7565b5061051182610c5d565b9050919050565b61052a8282610525610c96565b610c9d565b5050565b5f73ffffffffffffffffffffffffffffffffffffffff168273ffffffffffffffffffffffffffffffffffffffff160361059e575f6040517f64a0ae920000000000000000000000000000000000000000000000000000000081526004016105959190611d27565b60405180910390fd5b5f6105b183836105ac610c96565b610caf565b90508373ffffffffffffffffffffffffffffffffffffffff168173ffffffffffffffffffffffffffffffffffffffff1614610627578382826040517f64283d7b00000000000000000000000000000000000000000000000000000000815260040161061e939291906121f2565b60405180910390fd5b50505050565b61064783838360405180602001604052805f8152506107b9565b505050565b5f61065682610bd7565b9050919050565b5f8073ffffffffffffffffffffffffffffffffffffffff168273ffffffffffffffffffffffffffffffffffffffff16036106ce575f6040517f89c62b640000000000000000000000000000000000000000000000000000000081526004016106c59190611d27565b60405180910390fd5b60035f8373ffffffffffffffffffffffffffffffffffffffff1673ffffffffffffffffffffffffffffffffffffffff1681526020019081526020015f20549050919050565b606060018054610722906121c2565b80601f016020809104026020016040519081016040528092919081815260200182805461074e906121c2565b80156107995780601f1061077057610100808354040283529160200191610799565b820191905f5260205f20905b81548152906001019060200180831161077c57829003601f168201915b5050505050905090565b6107b56107ae610c96565b8383610eba565b5050565b6107c484848461052e565b6107d86107cf610c96565b85858585611093565b50505050565b6611c37937e0800081565b60606107f482610bd7565b505f6107fe61123f565b90505f61080a84611255565b90505f82510361081e578092505050610860565b5f8151111561085257818160405160200161083a929190612261565b60405160208183030381529060405292505050610860565b61085b846112f6565b925050505b919050565b6611c37937e080003410156108af576040517f08c379a00000000000000000000000000000000000000000000000000000000081526004016108a6906122ce565b60405180910390fd5b5f7f000000000000000000000000000000000000000000000000000000000000000073ffffffffffffffffffffffffffffffffffffffff166375eeeb28846040518263ffffffff1660e01b81526004016109099190611e32565b602060405180830381865afa158015610924573d5f803e3d5ffd5b505050506040513d601f19601f820116820180604052508101906109489190612300565b90505f73ffffffffffffffffffffffffffffffffffffffff168173ffffffffffffffffffffffffffffffffffffffff16036109b8576040517f08c379a00000000000000000000000000000000000000000000000000000000081526004016109af90612375565b60405180910390fd5b5f60075f8154809291906109cb906123c0565b9190505590506109db338261135c565b6109e5818461144f565b8173ffffffffffffffffffffffffffffffffffffffff166108fc3490811502906040515f60405180830381858888f19350505050158015610a28573d5f803e3d5ffd5b5083817f0ed327774e54ea9e7688b7873dd1ecc2f0c46fab880d80e44b8e9033ef55f0da33604051610a5a9190611d27565b60405180910390a350505050565b5f60055f8473ffffffffffffffffffffffffffffffffffffffff1673ffffffffffffffffffffffffffffffffffffffff1681526020019081526020015f205f8373ffffffffffffffffffffffffffffffffffffffff1673ffffffffffffffffffffffffffffffffffffffff1681526020019081526020015f205f9054906101000a900460ff16905092915050565b5f7f80ac58cd000000000000000000000000000000000000000000000000000000007bffffffffffffffffffffffffffffffffffffffffffffffffffffffff1916827bffffffffffffffffffffffffffffffffffffffffffffffffffffffff19161480610bc057507f5b5e139f000000000000000000000000000000000000000000000000000000007bffffffffffffffffffffffffffffffffffffffffffffffffffffffff1916827bffffffffffffffffffffffffffffffffffffffffffffffffffffffff1916145b80610bd05750610bcf826114a9565b5b9050919050565b5f80610be283611512565b90505f73ffffffffffffffffffffffffffffffffffffffff168173ffffffffffffffffffffffffffffffffffffffff1603610c5457826040517f7e273289000000000000000000000000000000000000000000000000000000008152600401610c4b9190611e32565b60405180910390fd5b80915050919050565b5f60045f8381526020019081526020015f205f9054906101000a900473ffffffffffffffffffffffffffffffffffffffff169050919050565b5f33905090565b610caa838383600161154b565b505050565b5f80610cba84611512565b90505f73ffffffffffffffffffffffffffffffffffffffff168373ffffffffffffffffffffffffffffffffffffffff1614610cfb57610cfa81848661170a565b5b5f73ffffffffffffffffffffffffffffffffffffffff168173ffffffffffffffffffffffffffffffffffffffff1614610d8657610d3a5f855f8061154b565b600160035f8373ffffffffffffffffffffffffffffffffffffffff1673ffffffffffffffffffffffffffffffffffffffff1681526020019081526020015f205f82825403925050819055505b5f73ffffffffffffffffffffffffffffffffffffffff168573ffffffffffffffffffffffffffffffffffffffff1614610e0557600160035f8773ffffffffffffffffffffffffffffffffffffffff1673ffffffffffffffffffffffffffffffffffffffff1681526020019081526020015f205f82825401925050819055505b8460025f8681526020019081526020015f205f6101000a81548173ffffffffffffffffffffffffffffffffffffffff021916908373ffffffffffffffffffffffffffffffffffffffff160217905550838573ffffffffffffffffffffffffffffffffffffffff168273ffffffffffffffffffffffffffffffffffffffff167fddf252ad1be2c89b69c2b068fc378daa952ba7f163c4a11628f55a4df523b3ef60405160405180910390a4809150509392505050565b5f73ffffffffffffffffffffffffffffffffffffffff168373ffffffffffffffffffffffffffffffffffffffff1603610f2a575f6040517fa9fbf51f000000000000000000000000000000000000000000000000000000008152600401610f219190611d27565b60405180910390fd5b5f73ffffffffffffffffffffffffffffffffffffffff168273ffffffffffffffffffffffffffffffffffffffff1603610f9a57816040517f5b08ba18000000000000000000000000000000000000000000000000000000008152600401610f919190611d27565b60405180910390fd5b8060055f8573ffffffffffffffffffffffffffffffffffffffff1673ffffffffffffffffffffffffffffffffffffffff1681526020019081526020015f205f8473ffffffffffffffffffffffffffffffffffffffff1673ffffffffffffffffffffffffffffffffffffffff1681526020019081526020015f205f6101000a81548160ff0219169083151502179055508173ffffffffffffffffffffffffffffffffffffffff168373ffffffffffffffffffffffffffffffffffffffff167f17307eab39ab6107e8899845ad3d59bd9653f200f220920489ca2b5937696c31836040516110869190611b53565b60405180910390a3505050565b5f8373ffffffffffffffffffffffffffffffffffffffff163b1115611238578273ffffffffffffffffffffffffffffffffffffffff1663150b7a02868685856040518563ffffffff1660e01b81526004016110f19493929190612459565b6020604051808303815f875af192505050801561112c57506040513d601f19601f8201168201806040525081019061112991906124b7565b60015b6111ad573d805f811461115a576040519150601f19603f3d011682016040523d82523d5f602084013e61115f565b606091505b505f8151036111a557836040517f64a0ae9200000000000000000000000000000000000000000000000000000000815260040161119c9190611d27565b60405180910390fd5b805160208201fd5b63150b7a0260e01b7bffffffffffffffffffffffffffffffffffffffffffffffffffffffff1916817bffffffffffffffffffffffffffffffffffffffffffffffffffffffff19161461123657836040517f64a0ae9200000000000000000000000000000000000000000000000000000000815260040161122d9190611d27565b60405180910390fd5b505b5050505050565b606060405180602001604052805f815250905090565b606060065f8381526020019081526020015f208054611273906121c2565b80601f016020809104026020016040519081016040528092919081815260200182805461129f906121c2565b80156112ea5780601f106112c1576101008083540402835291602001916112ea565b820191905f5260205f20905b8154815290600101906020018083116112cd57829003601f168201915b50505050509050919050565b606061130182610bd7565b505f61130b61123f565b90505f8151116113295760405180602001604052805f815250611354565b80611333846117cd565b604051602001611344929190612261565b6040516020818303038152906040525b915050919050565b5f73ffffffffffffffffffffffffffffffffffffffff168273ffffffffffffffffffffffffffffffffffffffff16036113cc575f6040517f64a0ae920000000000000000000000000000000000000000000000000000000081526004016113c39190611d27565b60405180910390fd5b5f6113d883835f610caf565b90505f73ffffffffffffffffffffffffffffffffffffffff168173ffffffffffffffffffffffffffffffffffffffff161461144a575f6040517f73c6ac6e0000000000000000000000000000000000000000000000000000000081526004016114419190611d27565b60405180910390fd5b505050565b8060065f8481526020019081526020015f20908161146d9190612676565b507ff8e1a15aba9398e019f0b49df1a4fde98ee17ae345cb5f6b5e2c27f5033e8ce78260405161149d9190611e32565b60405180910390a15050565b5f7f01ffc9a7000000000000000000000000000000000000000000000000000000007bffffffffffffffffffffffffffffffffffffffffffffffffffffffff1916827bffffffffffffffffffffffffffffffffffffffffffffffffffffffff1916149050919050565b5f60025f8381526020019081526020015f205f9054906101000a900473ffffffffffffffffffffffffffffffffffffffff169050919050565b808061158357505f73ffffffffffffffffffffffffffffffffffffffff168273ffffffffffffffffffffffffffffffffffffffff1614155b156116b5575f61159284610bd7565b90505f73ffffffffffffffffffffffffffffffffffffffff168373ffffffffffffffffffffffffffffffffffffffff16141580156115fc57508273ffffffffffffffffffffffffffffffffffffffff168173ffffffffffffffffffffffffffffffffffffffff1614155b801561160f575061160d8184610a68565b155b1561165157826040517fa9fbf51f0000000000000000000000000000000000000000000000000000000081526004016116489190611d27565b60405180910390fd5b81156116b357838573ffffffffffffffffffffffffffffffffffffffff168273ffffffffffffffffffffffffffffffffffffffff167f8c5be1e5ebec7d5bd14f71427d1e84f3dd0314c0f7b2291e5b200ac8c7c3b92560405160405180910390a45b505b8360045f8581526020019081526020015f205f6101000a81548173ffffffffffffffffffffffffffffffffffffffff021916908373ffffffffffffffffffffffffffffffffffffffff16021790555050505050565b611715838383611897565b6117c8575f73ffffffffffffffffffffffffffffffffffffffff168373ffffffffffffffffffffffffffffffffffffffff160361178957806040517f7e2732890000000000000000000000000000000000000000000000000000000081526004016117809190611e32565b60405180910390fd5b81816040517f177e802f0000000000000000000000000000000000000000000000000000000081526004016117bf929190612745565b60405180910390fd5b505050565b60605f60016117db84611957565b0190505f8167ffffffffffffffff8111156117f9576117f8611ebb565b5b6040519080825280601f01601f19166020018201604052801561182b5781602001600182028036833780820191505090505b5090505f82602083010190505b60011561188c578080600190039150507f3031323334353637383961626364656600000000000000000000000000000000600a86061a8153600a85816118815761188061276c565b5b0494505f8503611838575b819350505050919050565b5f8073ffffffffffffffffffffffffffffffffffffffff168373ffffffffffffffffffffffffffffffffffffffff161415801561194e57508273ffffffffffffffffffffffffffffffffffffffff168473ffffffffffffffffffffffffffffffffffffffff16148061190f575061190e8484610a68565b5b8061194d57508273ffffffffffffffffffffffffffffffffffffffff1661193583610c5d565b73ffffffffffffffffffffffffffffffffffffffff16145b5b90509392505050565b5f805f90507a184f03e93ff9f4daa797ed6e38ed64bf6a1f01000000000000000083106119b3577a184f03e93ff9f4daa797ed6e38ed64bf6a1f01000000000000000083816119a9576119a861276c565b5b0492506040810190505b6d04ee2d6d415b85acef810000000083106119f0576d04ee2d6d415b85acef810000000083816119e6576119e561276c565b5b0492506020810190505b662386f26fc100008310611a1f57662386f26fc100008381611a1557611a1461276c565b5b0492506010810190505b6305f5e1008310611a48576305f5e1008381611a3e57611a3d61276c565b5b0492506008810190505b6127108310611a6d576127108381611a6357611a6261276c565b5b0492506004810190505b60648310611a905760648381611a8657611a8561276c565b5b0492506002810190505b600a8310611a9f576001810190505b80915050919050565b5f604051905090565b5f80fd5b5f80fd5b5f7fffffffff0000000000000000000000000000000000000000000000000000000082169050919050565b611aed81611ab9565b8114611af7575f80fd5b50565b5f81359050611b0881611ae4565b92915050565b5f60208284031215611b2357611b22611ab1565b5b5f611b3084828501611afa565b91505092915050565b5f8115159050919050565b611b4d81611b39565b82525050565b5f602082019050611b665f830184611b44565b92915050565b5f73ffffffffffffffffffffffffffffffffffffffff82169050919050565b5f819050919050565b5f611bae611ba9611ba484611b6c565b611b8b565b611b6c565b9050919050565b5f611bbf82611b94565b9050919050565b5f611bd082611bb5565b9050919050565b611be081611bc6565b82525050565b5f602082019050611bf95f830184611bd7565b92915050565b5f81519050919050565b5f82825260208201905092915050565b5f5b83811015611c36578082015181840152602081019050611c1b565b5f8484015250505050565b5f601f19601f8301169050919050565b5f611c5b82611bff565b611c658185611c09565b9350611c75818560208601611c19565b611c7e81611c41565b840191505092915050565b5f6020820190508181035f830152611ca18184611c51565b905092915050565b5f819050919050565b611cbb81611ca9565b8114611cc5575f80fd5b50565b5f81359050611cd681611cb2565b92915050565b5f60208284031215611cf157611cf0611ab1565b5b5f611cfe84828501611cc8565b91505092915050565b5f611d1182611b6c565b9050919050565b611d2181611d07565b82525050565b5f602082019050611d3a5f830184611d18565b92915050565b611d4981611d07565b8114611d53575f80fd5b50565b5f81359050611d6481611d40565b92915050565b5f8060408385031215611d8057611d7f611ab1565b5b5f611d8d85828601611d56565b9250506020611d9e85828601611cc8565b9150509250929050565b5f805f60608486031215611dbf57611dbe611ab1565b5b5f611dcc86828701611d56565b9350506020611ddd86828701611d56565b9250506040611dee86828701611cc8565b9150509250925092565b5f60208284031215611e0d57611e0c611ab1565b5b5f611e1a84828501611d56565b91505092915050565b611e2c81611ca9565b82525050565b5f602082019050611e455f830184611e23565b92915050565b611e5481611b39565b8114611e5e575f80fd5b50565b5f81359050611e6f81611e4b565b92915050565b5f8060408385031215611e8b57611e8a611ab1565b5b5f611e9885828601611d56565b9250506020611ea985828601611e61565b9150509250929050565b5f80fd5b5f80fd5b7f4e487b71000000000000000000000000000000000000000000000000000000005f52604160045260245ffd5b611ef182611c41565b810181811067ffffffffffffffff82111715611f1057611f0f611ebb565b5b80604052505050565b5f611f22611aa8565b9050611f2e8282611ee8565b919050565b5f67ffffffffffffffff821115611f4d57611f4c611ebb565b5b611f5682611c41565b9050602081019050919050565b828183375f83830152505050565b5f611f83611f7e84611f33565b611f19565b905082815260208101848484011115611f9f57611f9e611eb7565b5b611faa848285611f63565b509392505050565b5f82601f830112611fc657611fc5611eb3565b5b8135611fd6848260208601611f71565b91505092915050565b5f805f8060808587031215611ff757611ff6611ab1565b5b5f61200487828801611d56565b945050602061201587828801611d56565b935050604061202687828801611cc8565b925050606085013567ffffffffffffffff81111561204757612046611ab5565b5b61205387828801611fb2565b91505092959194509250565b5f67ffffffffffffffff82111561207957612078611ebb565b5b61208282611c41565b9050602081019050919050565b5f6120a161209c8461205f565b611f19565b9050828152602081018484840111156120bd576120bc611eb7565b5b6120c8848285611f63565b509392505050565b5f82601f8301126120e4576120e3611eb3565b5b81356120f484826020860161208f565b91505092915050565b5f806040838503121561211357612112611ab1565b5b5f61212085828601611cc8565b925050602083013567ffffffffffffffff81111561214157612140611ab5565b5b61214d858286016120d0565b9150509250929050565b5f806040838503121561216d5761216c611ab1565b5b5f61217a85828601611d56565b925050602061218b85828601611d56565b9150509250929050565b7f4e487b71000000000000000000000000000000000000000000000000000000005f52602260045260245ffd5b5f60028204905060018216806121d957607f821691505b6020821081036121ec576121eb612195565b5b50919050565b5f6060820190506122055f830186611d18565b6122126020830185611e23565b61221f6040830184611d18565b949350505050565b5f81905092915050565b5f61223b82611bff565b6122458185612227565b9350612255818560208601611c19565b80840191505092915050565b5f61226c8285612231565b91506122788284612231565b91508190509392505050565b7f496e73756666696369656e74204554482073656e7420666f72206d696e7400005f82015250565b5f6122b8601e83611c09565b91506122c382612284565b602082019050919050565b5f6020820190508181035f8301526122e5816122ac565b9050919050565b5f815190506122fa81611d40565b92915050565b5f6020828403121561231557612314611ab1565b5b5f612322848285016122ec565b91505092915050565b7f506f737420646f6573206e6f74206578697374000000000000000000000000005f82015250565b5f61235f601383611c09565b915061236a8261232b565b602082019050919050565b5f6020820190508181035f83015261238c81612353565b9050919050565b7f4e487b71000000000000000000000000000000000000000000000000000000005f52601160045260245ffd5b5f6123ca82611ca9565b91507fffffffffffffffffffffffffffffffffffffffffffffffffffffffffffffffff82036123fc576123fb612393565b5b600182019050919050565b5f81519050919050565b5f82825260208201905092915050565b5f61242b82612407565b6124358185612411565b9350612445818560208601611c19565b61244e81611c41565b840191505092915050565b5f60808201905061246c5f830187611d18565b6124796020830186611d18565b6124866040830185611e23565b81810360608301526124988184612421565b905095945050505050565b5f815190506124b181611ae4565b92915050565b5f602082840312156124cc576124cb611ab1565b5b5f6124d9848285016124a3565b91505092915050565b5f819050815f5260205f209050919050565b5f6020601f8301049050919050565b5f82821b905092915050565b5f6008830261253e7fffffffffffffffffffffffffffffffffffffffffffffffffffffffffffffffff82612503565b6125488683612503565b95508019841693508086168417925050509392505050565b5f61257a61257561257084611ca9565b611b8b565b611ca9565b9050919050565b5f819050919050565b61259383612560565b6125a761259f82612581565b84845461250f565b825550505050565b5f90565b6125bb6125af565b6125c681848461258a565b505050565b5b818110156125e9576125de5f826125b3565b6001810190506125cc565b5050565b601f82111561262e576125ff816124e2565b612608846124f4565b81016020851015612617578190505b61262b612623856124f4565b8301826125cb565b50505b505050565b5f82821c905092915050565b5f61264e5f1984600802612633565b1980831691505092915050565b5f612666838361263f565b9150826002028217905092915050565b61267f82611bff565b67ffffffffffffffff81111561269857612697611ebb565b5b6126a282546121c2565b6126ad8282856125ed565b5f60209050601f8311600181146126de575f84156126cc578287015190505b6126d6858261265b565b86555061273d565b601f1984166126ec866124e2565b5f5b82811015612713578489015182556001820191506020850194506020810190506126ee565b86831015612730578489015161272c601f89168261263f565b8355505b6001600288020188555050505b505050505050565b5f6040820190506127585f830185611d18565b6127656020830184611e23565b9392505050565b7f4e487b71000000000000000000000000000000000000000000000000000000005f52601260045260245ffdfea26469706673582212203a4b629c75bd28231dd30503f0ec7b785ee913e7f2929c1b0b3fc4ef2752a2b064736f6c63430008180033",
  "linkReferences": {},
  "deployedLinkReferences": {}
}