{
  "_format": "hh-sol-artifact-1",
  "contractName": "SubscriptionManager",
  "sourceName": "contracts/SubscriptionManager.sol",
  "abi": [
    {
      "inputs": [
        {
          "internalType": "address",
          "name": "creatorRegistryAddress",
          "type": "address"
        }
      ],
      "stateMutability": "nonpayable",
      "type": "constructor"
    },
    {
      "anonymous": false,
      "inputs": [
        {
          "indexed": true,
          "internalType": "address",
          "name": "subscriber",
          "type": "address"
        },
        {
          "indexed": true,
          "internalType": "address",
          "name": "creator",
          "type": "address"
        },
        {
          "indexed": false,
          "internalType": "uint256",
          "name": "expiresAt",
          "type": "uint256"
        },
        {
          "indexed": false,
          "internalType": "uint256",
          "name": "amountPaid",
          "type": "uint256"
        }
      ],
      "name": "Subscribed",
      "type": "event"
    },
    {
      "anonymous": false,
      "inputs": [
        {
          "indexed": true,
          "internalType": "address",
          "name": "supporter",
          "type": "address"
        },
        {
          "indexed": true,
          "internalType": "address",
          "name": "creator",
          "type": "address"
        },
        {
          "indexed": false,
          "internalType": "uint256",
          "name": "amount",
          "type": "uint256"
        }
      ],
      "name": "Tipped",
      "type": "event"
    },
    {
      "inputs": [],
      "name": "SUBSCRIPTION_DURATION",
      "outputs": [
        {
          "internalType": "uint256",
          "name": "",
          "type": "uint256"
        }
      ],
      "stateMutability": "view",
      "type": "function"
    },
    {
      "inputs": [],
      "name": "creatorRegistry",
      "outputs": [
        {
          "internalType": "contract ICreatorRegistry",
          "name": "",
          "type": "address"
        }
      ],
      "stateMutability": "view",
      "type": "function"
    },
    {
      "inputs": [
        {
          "internalType": "address",
          "name": "user",
          "type": "address"
        },
        {
          "internalType": "address",
          "name": "creator",
          "type": "address"
        }
      ],
      "name": "isSubscribed",
      "outputs": [
        {
          "internalType": "bool",
          "name": "",
          "type": "bool"
        }
      ],
      "stateMutability": "view",
      "type": "function"
    },
    {
      "inputs": [
        {
          "internalType": "address",
          "name": "creator",
          "type": "address"
        }
      ],
      "name": "subscribe",
      "outputs": [],
      "stateMutability": "payable",
      "type": "function"
    },
    {
      "inputs": [
        {
          "internalType": "address",
          "name": "",
          "type": "address"
        },
        {
          "internalType": "address",
          "name": "",
          "type": "address"
        }
      ],
      "name": "subscriptionExpiry",
      "outputs": [
        {
          "internalType": "uint256",
          "name": "",
          "type": "uint256"
        }
      ],
      "stateMutability": "view",
      "type": "function"
    },
    {
      "inputs": [
        {
          "internalType": "address",
          "name": "creator",
          "type": "address"
        }
      ],
      "name": "tipCreator",
      "outputs": [],
      "stateMutability": "payable",
      "type": "function"
    }
  ],
  "bytecode": "0x60a060405234801562000010575f80fd5b5060405162001125380380620011258339818101604052810190620000369190620000d6565b8073ffffffffffffffffffffffffffffffffffffffff1660808173ffffffffffffffffffffffffffffffffffffffff16815250505062000106565b5f80fd5b5f73ffffffffffffffffffffffffffffffffffffffff82169050919050565b5f620000a08262000075565b9050919050565b620000b28162000094565b8114620000bd575f80fd5b50565b5f81519050620000d081620000a7565b92915050565b5f60208284031215620000ee57620000ed62000071565b5b5f620000fd84828501620000c0565b91505092915050565b608051610ff86200012d5f395f818161015f0152818161054201526107540152610ff85ff3fe608060405260043610610054575f3560e01c806341a7726a1461005857806365c4e4aa14610074578063996b5ff7146100905780639a6a5cf0146100cc578063f6416ef6146100f6578063f6847c8214610132575b5f80fd5b610072600480360381019061006d919061086b565b61015c565b005b61008e6004803603810190610089919061086b565b6104fd565b005b34801561009b575f80fd5b506100b660048036038101906100b19190610896565b610733565b6040516100c391906108ec565b60405180910390f35b3480156100d7575f80fd5b506100e0610752565b6040516100ed9190610960565b60405180910390f35b348015610101575f80fd5b5061011c60048036038101906101179190610896565b610776565b6040516101299190610993565b60405180910390f35b34801561013d575f80fd5b506101466107f9565b60405161015391906108ec565b60405180910390f35b5f7f000000000000000000000000000000000000000000000000000000000000000073ffffffffffffffffffffffffffffffffffffffff1663a0210309836040518263ffffffff1660e01b81526004016101b691906109bb565b5f60405180830381865afa1580156101d0573d5f803e3d5ffd5b505050506040513d5f823e3d601f19601f820116820180604052508101906101f89190610c33565b9050806060015161023e576040517f08c379a000000000000000000000000000000000000000000000000000000000815260040161023590610cd4565b60405180910390fd5b8060400151341015610285576040517f08c379a000000000000000000000000000000000000000000000000000000000815260040161027c90610d3c565b60405180910390fd5b5f8160400151116102cb576040517f08c379a00000000000000000000000000000000000000000000000000000000081526004016102c290610da4565b60405180910390fd5b5f805f3373ffffffffffffffffffffffffffffffffffffffff1673ffffffffffffffffffffffffffffffffffffffff1681526020019081526020015f205f8473ffffffffffffffffffffffffffffffffffffffff1673ffffffffffffffffffffffffffffffffffffffff1681526020019081526020015f205490505f4282116103545742610356565b815b90505f62278d00826103689190610def565b9050805f803373ffffffffffffffffffffffffffffffffffffffff1673ffffffffffffffffffffffffffffffffffffffff1681526020019081526020015f205f8773ffffffffffffffffffffffffffffffffffffffff1673ffffffffffffffffffffffffffffffffffffffff1681526020019081526020015f20819055505f8573ffffffffffffffffffffffffffffffffffffffff163460405161040b90610e4f565b5f6040518083038185875af1925050503d805f8114610445576040519150601f19603f3d011682016040523d82523d5f602084013e61044a565b606091505b505090508061048e576040517f08c379a000000000000000000000000000000000000000000000000000000000815260040161048590610ead565b60405180910390fd5b8573ffffffffffffffffffffffffffffffffffffffff163373ffffffffffffffffffffffffffffffffffffffff167f7f167950d6405e671782a5bac6c60bd0453dacbcc537d8b456f2d78b1e1751f684346040516104ed929190610ecb565b60405180910390a3505050505050565b5f341161053f576040517f08c379a000000000000000000000000000000000000000000000000000000000815260040161053690610f3c565b60405180910390fd5b5f7f000000000000000000000000000000000000000000000000000000000000000073ffffffffffffffffffffffffffffffffffffffff1663a0210309836040518263ffffffff1660e01b815260040161059991906109bb565b5f60405180830381865afa1580156105b3573d5f803e3d5ffd5b505050506040513d5f823e3d601f19601f820116820180604052508101906105db9190610c33565b90508060600151610621576040517f08c379a000000000000000000000000000000000000000000000000000000000815260040161061890610cd4565b60405180910390fd5b5f8273ffffffffffffffffffffffffffffffffffffffff163460405161064690610e4f565b5f6040518083038185875af1925050503d805f8114610680576040519150601f19603f3d011682016040523d82523d5f602084013e610685565b606091505b50509050806106c9576040517f08c379a00000000000000000000000000000000000000000000000000000000081526004016106c090610fa4565b60405180910390fd5b8273ffffffffffffffffffffffffffffffffffffffff163373ffffffffffffffffffffffffffffffffffffffff167f91d9aec1bf873fb589194ec67c304522c89e9e1de41ed647cf135fb41226befc3460405161072691906108ec565b60405180910390a3505050565b5f602052815f5260405f20602052805f5260405f205f91509150505481565b7f000000000000000000000000000000000000000000000000000000000000000081565b5f425f808573ffffffffffffffffffffffffffffffffffffffff1673ffffffffffffffffffffffffffffffffffffffff1681526020019081526020015f205f8473ffffffffffffffffffffffffffffffffffffffff1673ffffffffffffffffffffffffffffffffffffffff1681526020019081526020015f205411905092915050565b62278d0081565b5f604051905090565b5f80fd5b5f80fd5b5f73ffffffffffffffffffffffffffffffffffffffff82169050919050565b5f61083a82610811565b9050919050565b61084a81610830565b8114610854575f80fd5b50565b5f8135905061086581610841565b92915050565b5f602082840312156108805761087f610809565b5b5f61088d84828501610857565b91505092915050565b5f80604083850312156108ac576108ab610809565b5b5f6108b985828601610857565b92505060206108ca85828601610857565b9150509250929050565b5f819050919050565b6108e6816108d4565b82525050565b5f6020820190506108ff5f8301846108dd565b92915050565b5f819050919050565b5f61092861092361091e84610811565b610905565b610811565b9050919050565b5f6109398261090e565b9050919050565b5f61094a8261092f565b9050919050565b61095a81610940565b82525050565b5f6020820190506109735f830184610951565b92915050565b5f8115159050919050565b61098d81610979565b82525050565b5f6020820190506109a65f830184610984565b92915050565b6109b581610830565b82525050565b5f6020820190506109ce5f8301846109ac565b92915050565b5f80fd5b5f601f19601f8301169050919050565b7f4e487b71000000000000000000000000000000000000000000000000000000005f52604160045260245ffd5b610a1e826109d8565b810181811067ffffffffffffffff82111715610a3d57610a3c6109e8565b5b80604052505050565b5f610a4f610800565b9050610a5b8282610a15565b919050565b5f80fd5b5f80fd5b5f80fd5b5f67ffffffffffffffff821115610a8657610a856109e8565b5b610a8f826109d8565b9050602081019050919050565b5f5b83811015610ab9578082015181840152602081019050610a9e565b5f8484015250505050565b5f610ad6610ad184610a6c565b610a46565b905082815260208101848484011115610af257610af1610a68565b5b610afd848285610a9c565b509392505050565b5f82601f830112610b1957610b18610a64565b5b8151610b29848260208601610ac4565b91505092915050565b610b3b816108d4565b8114610b45575f80fd5b50565b5f81519050610b5681610b32565b92915050565b610b6581610979565b8114610b6f575f80fd5b50565b5f81519050610b8081610b5c565b92915050565b5f60808284031215610b9b57610b9a6109d4565b5b610ba56080610a46565b90505f82015167ffffffffffffffff811115610bc457610bc3610a60565b5b610bd084828501610b05565b5f83015250602082015167ffffffffffffffff811115610bf357610bf2610a60565b5b610bff84828501610b05565b6020830152506040610c1384828501610b48565b6040830152506060610c2784828501610b72565b60608301525092915050565b5f60208284031215610c4857610c47610809565b5b5f82015167ffffffffffffffff811115610c6557610c6461080d565b5b610c7184828501610b86565b91505092915050565b5f82825260208201905092915050565b7f43726561746f72206e6f742072656769737465726564000000000000000000005f82015250565b5f610cbe601683610c7a565b9150610cc982610c8a565b602082019050919050565b5f6020820190508181035f830152610ceb81610cb2565b9050919050565b7f496e73756666696369656e74207061796d656e740000000000000000000000005f82015250565b5f610d26601483610c7a565b9150610d3182610cf2565b602082019050919050565b5f6020820190508181035f830152610d5381610d1a565b9050919050565b7f537562736372697074696f6e2064697361626c656400000000000000000000005f82015250565b5f610d8e601583610c7a565b9150610d9982610d5a565b602082019050919050565b5f6020820190508181035f830152610dbb81610d82565b9050919050565b7f4e487b71000000000000000000000000000000000000000000000000000000005f52601160045260245ffd5b5f610df9826108d4565b9150610e04836108d4565b9250828201905080821115610e1c57610e1b610dc2565b5b92915050565b5f81905092915050565b50565b5f610e3a5f83610e22565b9150610e4582610e2c565b5f82019050919050565b5f610e5982610e2f565b9150819050919050565b7f5472616e73666572206661696c656400000000000000000000000000000000005f82015250565b5f610e97600f83610c7a565b9150610ea282610e63565b602082019050919050565b5f6020820190508181035f830152610ec481610e8b565b9050919050565b5f604082019050610ede5f8301856108dd565b610eeb60208301846108dd565b9392505050565b7f546970206d7573742062652067726561746572207468616e20300000000000005f82015250565b5f610f26601a83610c7a565b9150610f3182610ef2565b602082019050919050565b5f6020820190508181035f830152610f5381610f1a565b9050919050565b7f546970207472616e73666572206661696c6564000000000000000000000000005f82015250565b5f610f8e601383610c7a565b9150610f9982610f5a565b602082019050919050565b5f6020820190508181035f830152610fbb81610f82565b905091905056fea264697066735822122097d9a283f9dc6db56a6375cf7fb3016f2210ae93599b2571a30feec77911090164736f6c63430008180033",
  "linkReferences": {},
  "deployedLinkReferences": {}
}