{
  "_format": "hh-sol-artifact-1",
  "contractName": "SubscriptionManager",
  "sourceName": "contracts/SubscriptionManager.sol",
  "abi": [
    {
      "inputs": [
        {
          "internalType": "address",
          "name": "creatorRegistryAddress",
          "type": "address"
        }
      ],
      "stateMutability": "nonpayable",
      "type": "constructor"
    },
    {
      "anonymous": false,
      "inputs": [
        {
          "indexed": true,
          "internalType": "address",
          "name": "subscriber",
          "type": "address"
        },
        {
          "indexed": true,
          "internalType": "address",
          "name": "creator",
          "type": "address"
        },
        {
          "indexed": false,
          "internalType": "uint256",
          "name": "expiresAt",
          "type": "uint256"
        },
        {
          "indexed": false,
          "internalType": "uint256",
          "name": "amountPaid",
          "type": "uint256"
        }
      ],
      "name": "Subscribed",
      "type": "event"
    },
    {
      "anonymous": false,
      "inputs": [
        {
          "indexed": true,
          "internalType": "address",
          "name": "supporter",
          "type": "address"
        },
        {
          "indexed": true,
          "internalType": "address",
          "name": "creator",
          "type": "address"
        },
        {
          "indexed": false,
          "internalType": "uint256",
          "name": "amount",
          "type": "uint256"
        }
      ],
      "name": "Tipped",
      "type": "event"
    },
    {
      "inputs": [],
      "name": "SUBSCRIPTION_DURATION",
      "outputs": [
        {
          "internalType": "uint256",
          "name": "",
          "type": "uint256"
        }
      ],
      "stateMutability": "view",
      "type": "function"
    },
    {
      "inputs": [],
      "name": "creatorRegistry",
      "outputs": [
        {
          "internalType": "contract ICreatorRegistry",
          "name": "",
          "type": "address"
        }
      ],
      "stateMutability": "view",
      "type": "function"
    },
    {
      "inputs": [
        {
          "internalType": "address",
          "name": "user",
          "type": "address"
        },
        {
          "internalType": "address",
          "name": "creator",
          "type": "address"
        }
      ],
      "name": "isSubscribed",
      "outputs": [
        {
          "internalType": "bool",
          "name": "",
          "type": "bool"
        }
      ],
      "stateMutability": "view",
      "type": "function"
    },
    {
      "inputs": [
        {
          "internalType": "address",
          "name": "creator",
          "type": "address"
        }
      ],
      "name": "subscribe",
      "outputs": [],
      "stateMutability": "payable",
      "type": "function"
    },
    {
      "inputs": [
        {
          "internalType": "address",
          "name": "",
          "type": "address"
        },
        {
          "internalType": "address",
          "name": "",
          "type": "address"
        }
      ],
      "name": "subscriptionExpiry",
      "outputs": [
        {
          "internalType": "uint256",
          "name": "",
          "type": "uint256"
        }
      ],
      "stateMutability": "view",
      "type": "function"
    },
    {
      "inputs": [
        {
          "internalType": "address",
          "name": "creator",
          "type": "address"
        }
      ],
      "name": "tipCreator",
      "outputs": [],
      "stateMutability": "payable",
      "type": "function"
    }
  ],
  "bytecode": "0x60a06040523480156200001157600080fd5b50604051620011b2380380620011b28339818101604052810190620000379190620000dc565b8073ffffffffffffffffffffffffffffffffffffffff1660808173ffffffffffffffffffffffffffffffffffffffff1681525050506200010e565b600080fd5b600073ffffffffffffffffffffffffffffffffffffffff82169050919050565b6000620000a48262000077565b9050919050565b620000b68162000097565b8114620000c257600080fd5b50565b600081519050620000d681620000ab565b92915050565b600060208284031215620000f557620000f462000072565b5b60006200010584828501620000c5565b91505092915050565b60805161107a62000138600039600081816101660152818161055f015261077f015261107a6000f3fe6080604052600436106100555760003560e01c806341a7726a1461005a57806365c4e4aa14610076578063996b5ff7146100925780639a6a5cf0146100cf578063f6416ef6146100fa578063f6847c8214610137575b600080fd5b610074600480360381019061006f91906108a2565b610162565b005b610090600480360381019061008b91906108a2565b610518565b005b34801561009e57600080fd5b506100b960048036038101906100b491906108cf565b610758565b6040516100c69190610928565b60405180910390f35b3480156100db57600080fd5b506100e461077d565b6040516100f191906109a2565b60405180910390f35b34801561010657600080fd5b50610121600480360381019061011c91906108cf565b6107a1565b60405161012e91906109d8565b60405180910390f35b34801561014357600080fd5b5061014c610829565b6040516101599190610928565b60405180910390f35b60007f000000000000000000000000000000000000000000000000000000000000000073ffffffffffffffffffffffffffffffffffffffff1663a0210309836040518263ffffffff1660e01b81526004016101bd9190610a02565b600060405180830381865afa1580156101da573d6000803e3d6000fd5b505050506040513d6000823e3d601f19601f820116820180604052508101906102039190610c90565b90508060600151610249576040517f08c379a000000000000000000000000000000000000000000000000000000000815260040161024090610d36565b60405180910390fd5b8060400151341015610290576040517f08c379a000000000000000000000000000000000000000000000000000000000815260040161028790610da2565b60405180910390fd5b60008160400151116102d7576040517f08c379a00000000000000000000000000000000000000000000000000000000081526004016102ce90610e0e565b60405180910390fd5b60008060003373ffffffffffffffffffffffffffffffffffffffff1673ffffffffffffffffffffffffffffffffffffffff16815260200190815260200160002060008473ffffffffffffffffffffffffffffffffffffffff1673ffffffffffffffffffffffffffffffffffffffff16815260200190815260200160002054905060004282116103665742610368565b815b9050600062278d008261037b9190610e5d565b9050806000803373ffffffffffffffffffffffffffffffffffffffff1673ffffffffffffffffffffffffffffffffffffffff16815260200190815260200160002060008773ffffffffffffffffffffffffffffffffffffffff1673ffffffffffffffffffffffffffffffffffffffff1681526020019081526020016000208190555060008573ffffffffffffffffffffffffffffffffffffffff163460405161042390610ec2565b60006040518083038185875af1925050503d8060008114610460576040519150601f19603f3d011682016040523d82523d6000602084013e610465565b606091505b50509050806104a9576040517f08c379a00000000000000000000000000000000000000000000000000000000081526004016104a090610f23565b60405180910390fd5b8573ffffffffffffffffffffffffffffffffffffffff163373ffffffffffffffffffffffffffffffffffffffff167f7f167950d6405e671782a5bac6c60bd0453dacbcc537d8b456f2d78b1e1751f68434604051610508929190610f43565b60405180910390a3505050505050565b6000341161055b576040517f08c379a000000000000000000000000000000000000000000000000000000000815260040161055290610fb8565b60405180910390fd5b60007f000000000000000000000000000000000000000000000000000000000000000073ffffffffffffffffffffffffffffffffffffffff1663a0210309836040518263ffffffff1660e01b81526004016105b69190610a02565b600060405180830381865afa1580156105d3573d6000803e3d6000fd5b505050506040513d6000823e3d601f19601f820116820180604052508101906105fc9190610c90565b90508060600151610642576040517f08c379a000000000000000000000000000000000000000000000000000000000815260040161063990610d36565b60405180910390fd5b60008273ffffffffffffffffffffffffffffffffffffffff163460405161066890610ec2565b60006040518083038185875af1925050503d80600081146106a5576040519150601f19603f3d011682016040523d82523d6000602084013e6106aa565b606091505b50509050806106ee576040517f08c379a00000000000000000000000000000000000000000000000000000000081526004016106e590611024565b60405180910390fd5b8273ffffffffffffffffffffffffffffffffffffffff163373ffffffffffffffffffffffffffffffffffffffff167f91d9aec1bf873fb589194ec67c304522c89e9e1de41ed647cf135fb41226befc3460405161074b9190610928565b60405180910390a3505050565b6000602052816000526040600020602052806000526040600020600091509150505481565b7f000000000000000000000000000000000000000000000000000000000000000081565b6000426000808573ffffffffffffffffffffffffffffffffffffffff1673ffffffffffffffffffffffffffffffffffffffff16815260200190815260200160002060008473ffffffffffffffffffffffffffffffffffffffff1673ffffffffffffffffffffffffffffffffffffffff1681526020019081526020016000205411905092915050565b62278d0081565b6000604051905090565b600080fd5b600080fd5b600073ffffffffffffffffffffffffffffffffffffffff82169050919050565b600061086f82610844565b9050919050565b61087f81610864565b811461088a57600080fd5b50565b60008135905061089c81610876565b92915050565b6000602082840312156108b8576108b761083a565b5b60006108c68482850161088d565b91505092915050565b600080604083850312156108e6576108e561083a565b5b60006108f48582860161088d565b92505060206109058582860161088d565b9150509250929050565b6000819050919050565b6109228161090f565b82525050565b600060208201905061093d6000830184610919565b92915050565b6000819050919050565b600061096861096361095e84610844565b610943565b610844565b9050919050565b600061097a8261094d565b9050919050565b600061098c8261096f565b9050919050565b61099c81610981565b82525050565b60006020820190506109b76000830184610993565b92915050565b60008115159050919050565b6109d2816109bd565b82525050565b60006020820190506109ed60008301846109c9565b92915050565b6109fc81610864565b82525050565b6000602082019050610a1760008301846109f3565b92915050565b600080fd5b6000601f19601f8301169050919050565b7f4e487b7100000000000000000000000000000000000000000000000000000000600052604160045260246000fd5b610a6b82610a22565b810181811067ffffffffffffffff82111715610a8a57610a89610a33565b5b80604052505050565b6000610a9d610830565b9050610aa98282610a62565b919050565b600080fd5b600080fd5b600080fd5b600067ffffffffffffffff821115610ad857610ad7610a33565b5b610ae182610a22565b9050602081019050919050565b60005b83811015610b0c578082015181840152602081019050610af1565b60008484015250505050565b6000610b2b610b2684610abd565b610a93565b905082815260208101848484011115610b4757610b46610ab8565b5b610b52848285610aee565b509392505050565b600082601f830112610b6f57610b6e610ab3565b5b8151610b7f848260208601610b18565b91505092915050565b610b918161090f565b8114610b9c57600080fd5b50565b600081519050610bae81610b88565b92915050565b610bbd816109bd565b8114610bc857600080fd5b50565b600081519050610bda81610bb4565b92915050565b600060808284031215610bf657610bf5610a1d565b5b610c006080610a93565b9050600082015167ffffffffffffffff811115610c2057610c1f610aae565b5b610c2c84828501610b5a565b600083015250602082015167ffffffffffffffff811115610c5057610c4f610aae565b5b610c5c84828501610b5a565b6020830152506040610c7084828501610b9f565b6040830152506060610c8484828501610bcb565b60608301525092915050565b600060208284031215610ca657610ca561083a565b5b600082015167ffffffffffffffff811115610cc457610cc361083f565b5b610cd084828501610be0565b91505092915050565b600082825260208201905092915050565b7f43726561746f72206e6f74207265676973746572656400000000000000000000600082015250565b6000610d20601683610cd9565b9150610d2b82610cea565b602082019050919050565b60006020820190508181036000830152610d4f81610d13565b9050919050565b7f496e73756666696369656e74207061796d656e74000000000000000000000000600082015250565b6000610d8c601483610cd9565b9150610d9782610d56565b602082019050919050565b60006020820190508181036000830152610dbb81610d7f565b9050919050565b7f537562736372697074696f6e2064697361626c65640000000000000000000000600082015250565b6000610df8601583610cd9565b9150610e0382610dc2565b602082019050919050565b60006020820190508181036000830152610e2781610deb565b9050919050565b7f4e487b7100000000000000000000000000000000000000000000000000000000600052601160045260246000fd5b6000610e688261090f565b9150610e738361090f565b9250828201905080821115610e8b57610e8a610e2e565b5b92915050565b600081905092915050565b50565b6000610eac600083610e91565b9150610eb782610e9c565b600082019050919050565b6000610ecd82610e9f565b9150819050919050565b7f5472616e73666572206661696c65640000000000000000000000000000000000600082015250565b6000610f0d600f83610cd9565b9150610f1882610ed7565b602082019050919050565b60006020820190508181036000830152610f3c81610f00565b9050919050565b6000604082019050610f586000830185610919565b610f656020830184610919565b9392505050565b7f546970206d7573742062652067726561746572207468616e2030000000000000600082015250565b6000610fa2601a83610cd9565b9150610fad82610f6c565b602082019050919050565b60006020820190508181036000830152610fd181610f95565b9050919050565b7f546970207472616e73666572206661696c656400000000000000000000000000600082015250565b600061100e601383610cd9565b915061101982610fd8565b602082019050919050565b6000602082019050818103600083015261103d81611001565b905091905056fea2646970667358221220f7d01c3c634bc5dce6b0aedee92c34fdd7a4a5684a0ab58d635ff5c7a126e03464736f6c63430008180033",
  "linkReferences": {},
  "deployedLinkReferences": {}
}